{
  "contractName": "Controller",
  "abi": [
    {
      "constant": false,
      "inputs": [
        {
          "name": "_token",
          "type": "address"
        }
      ],
      "name": "reclaimToken",
      "outputs": [],
      "payable": false,
      "stateMutability": "nonpayable",
      "type": "function"
    },
    {
      "constant": false,
      "inputs": [
        {
          "name": "contractToOwn",
          "type": "address"
        }
      ],
      "name": "callClaimOwnership",
      "outputs": [
        {
          "name": "",
          "type": "bool"
        }
      ],
      "payable": false,
      "stateMutability": "nonpayable",
      "type": "function"
    },
    {
      "constant": false,
      "inputs": [
        {
          "name": "ownedContract",
          "type": "address"
        },
        {
          "name": "_token",
          "type": "address"
        }
      ],
      "name": "callReclaimToken",
      "outputs": [
        {
          "name": "",
          "type": "bool"
        }
      ],
      "payable": false,
      "stateMutability": "nonpayable",
      "type": "function"
    },
    {
      "constant": false,
      "inputs": [],
      "name": "claimOwnership",
      "outputs": [],
      "payable": false,
      "stateMutability": "nonpayable",
      "type": "function"
    },
    {
      "constant": true,
      "inputs": [],
      "name": "owner",
      "outputs": [
        {
          "name": "",
          "type": "address"
        }
      ],
      "payable": false,
      "stateMutability": "view",
      "type": "function"
    },
    {
      "constant": true,
      "inputs": [],
      "name": "members",
      "outputs": [
        {
          "name": "",
          "type": "address"
        }
      ],
      "payable": false,
      "stateMutability": "view",
      "type": "function"
    },
    {
      "constant": true,
      "inputs": [],
      "name": "factory",
      "outputs": [
        {
          "name": "",
          "type": "address"
        }
      ],
      "payable": false,
      "stateMutability": "view",
      "type": "function"
    },
    {
      "constant": true,
      "inputs": [],
      "name": "pendingOwner",
      "outputs": [
        {
          "name": "",
          "type": "address"
        }
      ],
      "payable": false,
      "stateMutability": "view",
      "type": "function"
    },
    {
      "constant": false,
      "inputs": [
        {
          "name": "ownedContract",
          "type": "address"
        },
        {
          "name": "newOwner",
          "type": "address"
        }
      ],
      "name": "callTransferOwnership",
      "outputs": [
        {
          "name": "",
          "type": "bool"
        }
      ],
      "payable": false,
      "stateMutability": "nonpayable",
      "type": "function"
    },
    {
      "constant": false,
      "inputs": [
        {
          "name": "newOwner",
          "type": "address"
        }
      ],
      "name": "transferOwnership",
      "outputs": [],
      "payable": false,
      "stateMutability": "nonpayable",
      "type": "function"
    },
    {
      "constant": true,
      "inputs": [],
      "name": "token",
      "outputs": [
        {
          "name": "",
          "type": "address"
        }
      ],
      "payable": false,
      "stateMutability": "view",
      "type": "function"
    },
    {
      "inputs": [
        {
          "name": "_token",
          "type": "address"
        }
      ],
      "payable": false,
      "stateMutability": "nonpayable",
      "type": "constructor"
    },
    {
      "anonymous": false,
      "inputs": [
        {
          "indexed": true,
          "name": "members",
          "type": "address"
        }
      ],
      "name": "MembersSet",
      "type": "event"
    },
    {
      "anonymous": false,
      "inputs": [
        {
          "indexed": true,
          "name": "factory",
          "type": "address"
        }
      ],
      "name": "FactorySet",
      "type": "event"
    },
    {
      "anonymous": false,
      "inputs": [],
      "name": "Paused",
      "type": "event"
    },
    {
      "anonymous": false,
      "inputs": [],
      "name": "Unpaused",
      "type": "event"
    },
    {
      "anonymous": false,
      "inputs": [
        {
          "indexed": false,
          "name": "ownedContract",
          "type": "address"
        },
        {
          "indexed": false,
          "name": "newOwner",
          "type": "address"
        }
      ],
      "name": "CalledTransferOwnership",
      "type": "event"
    },
    {
      "anonymous": false,
      "inputs": [
        {
          "indexed": false,
          "name": "contractToOwn",
          "type": "address"
        }
      ],
      "name": "CalledClaimOwnership",
      "type": "event"
    },
    {
      "anonymous": false,
      "inputs": [
        {
          "indexed": false,
          "name": "ownedContract",
          "type": "address"
        },
        {
          "indexed": false,
          "name": "_token",
          "type": "address"
        }
      ],
      "name": "CalledReclaimToken",
      "type": "event"
    },
    {
      "anonymous": false,
      "inputs": [
        {
          "indexed": true,
          "name": "previousOwner",
          "type": "address"
        }
      ],
      "name": "OwnershipRenounced",
      "type": "event"
    },
    {
      "anonymous": false,
      "inputs": [
        {
          "indexed": true,
          "name": "previousOwner",
          "type": "address"
        },
        {
          "indexed": true,
          "name": "newOwner",
          "type": "address"
        }
      ],
      "name": "OwnershipTransferred",
      "type": "event"
    },
    {
      "constant": false,
      "inputs": [
        {
          "name": "_members",
          "type": "address"
        }
      ],
      "name": "setMembers",
      "outputs": [
        {
          "name": "",
          "type": "bool"
        }
      ],
      "payable": false,
      "stateMutability": "nonpayable",
      "type": "function"
    },
    {
      "constant": false,
      "inputs": [
        {
          "name": "_factory",
          "type": "address"
        }
      ],
      "name": "setFactory",
      "outputs": [
        {
          "name": "",
          "type": "bool"
        }
      ],
      "payable": false,
      "stateMutability": "nonpayable",
      "type": "function"
    },
    {
      "constant": false,
      "inputs": [],
      "name": "pause",
      "outputs": [
        {
          "name": "",
          "type": "bool"
        }
      ],
      "payable": false,
      "stateMutability": "nonpayable",
      "type": "function"
    },
    {
      "constant": false,
      "inputs": [],
      "name": "unpause",
      "outputs": [
        {
          "name": "",
          "type": "bool"
        }
      ],
      "payable": false,
      "stateMutability": "nonpayable",
      "type": "function"
    },
    {
      "constant": false,
      "inputs": [
        {
          "name": "to",
          "type": "address"
        },
        {
          "name": "amount",
          "type": "uint256"
        }
      ],
      "name": "mint",
      "outputs": [
        {
          "name": "",
          "type": "bool"
        }
      ],
      "payable": false,
      "stateMutability": "nonpayable",
      "type": "function"
    },
    {
      "constant": false,
      "inputs": [
        {
          "name": "value",
          "type": "uint256"
        }
      ],
      "name": "burn",
      "outputs": [
        {
          "name": "",
          "type": "bool"
        }
      ],
      "payable": false,
      "stateMutability": "nonpayable",
      "type": "function"
    },
    {
      "constant": true,
      "inputs": [
        {
          "name": "addr",
          "type": "address"
        }
      ],
      "name": "isCustodian",
      "outputs": [
        {
          "name": "",
          "type": "bool"
        }
      ],
      "payable": false,
      "stateMutability": "view",
      "type": "function"
    },
    {
      "constant": true,
      "inputs": [
        {
          "name": "addr",
          "type": "address"
        }
      ],
      "name": "isMerchant",
      "outputs": [
        {
          "name": "",
          "type": "bool"
        }
      ],
      "payable": false,
      "stateMutability": "view",
      "type": "function"
    },
    {
      "constant": true,
      "inputs": [],
      "name": "getToken",
      "outputs": [
        {
          "name": "",
          "type": "address"
        }
      ],
      "payable": false,
      "stateMutability": "view",
      "type": "function"
    },
    {
      "constant": false,
      "inputs": [],
      "name": "renounceOwnership",
      "outputs": [],
      "payable": false,
      "stateMutability": "nonpayable",
      "type": "function"
    }
  ],
  "bytecode": "0x608060405234801561001057600080fd5b50604051602080611360833981016040525160008054600160a060020a03191633179055600160a060020a03811615156100ab57604080517f08c379a000000000000000000000000000000000000000000000000000000000815260206004820152601660248201527f696e76616c6964205f746f6b656e206164647265737300000000000000000000604482015290519081900360640190fd5b60028054600160a060020a031916600160a060020a0392909216919091179055611286806100da6000396000f3006080604052600436106101035763ffffffff60e060020a60003504166317ffc32081146101085780631a2f71671461012b57806321df0da714610160578063332ee1921461019157806335c80c8c146101b25780633f4ba83a146101d357806340c10f19146101e857806342966c681461020c5780634ca66540146102245780634e71e0c81461024b5780635bb4780814610260578063715018a6146102815780638456cb59146102965780638da5cb5b146102ab578063bdd4d18d146102c0578063c45a0155146102d5578063e30c3978146102ea578063f2080dd0146102ff578063f2fde38b14610326578063f3796bdc14610347578063fc0c546a14610368575b600080fd5b34801561011457600080fd5b50610129600160a060020a036004351661037d565b005b34801561013757600080fd5b5061014c600160a060020a0360043516610449565b604080519115158252519081900360200190f35b34801561016c57600080fd5b506101756104e6565b60408051600160a060020a039092168252519081900360200190f35b34801561019d57600080fd5b5061014c600160a060020a03600435166104f5565b3480156101be57600080fd5b5061014c600160a060020a03600435166105a8565b3480156101df57600080fd5b5061014c610613565b3480156101f457600080fd5b5061014c600160a060020a03600435166024356106c5565b34801561021857600080fd5b5061014c60043561097e565b34801561023057600080fd5b5061014c600160a060020a0360043581169060243516610b63565b34801561025757600080fd5b50610129610c9c565b34801561026c57600080fd5b5061014c600160a060020a0360043516610d24565b34801561028d57600080fd5b50610129610dfe565b3480156102a257600080fd5b5061014c610e65565b3480156102b757600080fd5b50610175610f17565b3480156102cc57600080fd5b50610175610f26565b3480156102e157600080fd5b50610175610f35565b3480156102f657600080fd5b50610175610f44565b34801561030b57600080fd5b5061014c600160a060020a0360043581169060243516610f53565b34801561033257600080fd5b50610129600160a060020a036004351661108c565b34801561035357600080fd5b5061014c600160a060020a03600435166110d2565b34801561037457600080fd5b506101756111ac565b60008054600160a060020a0316331461039557600080fd5b604080517f70a082310000000000000000000000000000000000000000000000000000000081523060048201529051600160a060020a038416916370a082319160248083019260209291908290030181600087803b1580156103f657600080fd5b505af115801561040a573d6000803e3d6000fd5b505050506040513d602081101561042057600080fd5b505160005490915061044590600160a060020a0384811691168363ffffffff6111bb16565b5050565b600354604080517f1a2f7167000000000000000000000000000000000000000000000000000000008152600160a060020a03848116600483015291516000939290921691631a2f71679160248082019260209290919082900301818787803b1580156104b457600080fd5b505af11580156104c8573d6000803e3d6000fd5b505050506040513d60208110156104de57600080fd5b505192915050565b600254600160a060020a031690565b60008054600160a060020a0316331461050d57600080fd5b81600160a060020a0316634e71e0c86040518163ffffffff1660e060020a028152600401600060405180830381600087803b15801561054b57600080fd5b505af115801561055f573d6000803e3d6000fd5b505060408051600160a060020a038616815290517ff3ad522750d368e1255a208fc9116f9ed12f39188f69b89c50c8dc43df78049b9350908190036020019150a1506001919050565b600354604080517f35c80c8c000000000000000000000000000000000000000000000000000000008152600160a060020a038481166004830152915160009392909216916335c80c8c9160248082019260209290919082900301818787803b1580156104b457600080fd5b60008054600160a060020a0316331461062b57600080fd5b600260009054906101000a9004600160a060020a0316600160a060020a0316633f4ba83a6040518163ffffffff1660e060020a028152600401600060405180830381600087803b15801561067e57600080fd5b505af1158015610692573d6000803e3d6000fd5b50506040517fa45f47fdea8a1efdd9029a5691c7f759c32b7c698632b563573e155625d16933925060009150a150600190565b600454600090600160a060020a03163314610750576040805160e560020a62461bcd02815260206004820152602d60248201527f73656e646572206e6f7420617574686f72697a656420666f72206d696e74696e60448201527f67206f72206275726e696e672e00000000000000000000000000000000000000606482015290519081900360840190fd5b600160a060020a03831615156107b0576040805160e560020a62461bcd02815260206004820152601260248201527f696e76616c696420746f20616464726573730000000000000000000000000000604482015290519081900360640190fd5b600260009054906101000a9004600160a060020a0316600160a060020a0316635c975abb6040518163ffffffff1660e060020a028152600401602060405180830381600087803b15801561080357600080fd5b505af1158015610817573d6000803e3d6000fd5b505050506040513d602081101561082d57600080fd5b505115610884576040805160e560020a62461bcd02815260206004820152601060248201527f746f6b656e206973207061757365642e00000000000000000000000000000000604482015290519081900360640190fd5b600254604080517f40c10f19000000000000000000000000000000000000000000000000000000008152600160a060020a03868116600483015260248201869052915191909216916340c10f199160448083019260209291908290030181600087803b1580156108f357600080fd5b505af1158015610907573d6000803e3d6000fd5b505050506040513d602081101561091d57600080fd5b50511515610975576040805160e560020a62461bcd02815260206004820152600f60248201527f6d696e74696e67206661696c65642e0000000000000000000000000000000000604482015290519081900360640190fd5b50600192915050565b600454600090600160a060020a03163314610a09576040805160e560020a62461bcd02815260206004820152602d60248201527f73656e646572206e6f7420617574686f72697a656420666f72206d696e74696e60448201527f67206f72206275726e696e672e00000000000000000000000000000000000000606482015290519081900360840190fd5b600260009054906101000a9004600160a060020a0316600160a060020a0316635c975abb6040518163ffffffff1660e060020a028152600401602060405180830381600087803b158015610a5c57600080fd5b505af1158015610a70573d6000803e3d6000fd5b505050506040513d6020811015610a8657600080fd5b505115610add576040805160e560020a62461bcd02815260206004820152601060248201527f746f6b656e206973207061757365642e00000000000000000000000000000000604482015290519081900360640190fd5b600254604080517f42966c68000000000000000000000000000000000000000000000000000000008152600481018590529051600160a060020a03909216916342966c689160248082019260009290919082900301818387803b158015610b4357600080fd5b505af1158015610b57573d6000803e3d6000fd5b50600195945050505050565b60008054600160a060020a03163314610b7b57600080fd5b600160a060020a0382161515610bdb576040805160e560020a62461bcd02815260206004820152601660248201527f696e76616c6964205f746f6b656e206164647265737300000000000000000000604482015290519081900360640190fd5b82600160a060020a03166317ffc320836040518263ffffffff1660e060020a0281526004018082600160a060020a0316600160a060020a03168152602001915050600060405180830381600087803b158015610c3657600080fd5b505af1158015610c4a573d6000803e3d6000fd5b505060408051600160a060020a0380881682528616602082015281517f56195bb7b8fa8c05ef27289a07013ef2d3f4608c4308e875c6c2e19eb033a9589450908190039091019150a150600192915050565b600154600160a060020a03163314610cb357600080fd5b60015460008054604051600160a060020a0393841693909116917f8be0079c531659141344cd1fd0a4f28419497f9722a3daafe3b4186f6b6457e091a3600180546000805473ffffffffffffffffffffffffffffffffffffffff19908116600160a060020a03841617909155169055565b60008054600160a060020a03163314610d3c57600080fd5b600160a060020a0382161515610d9c576040805160e560020a62461bcd02815260206004820152601860248201527f696e76616c6964205f666163746f727920616464726573730000000000000000604482015290519081900360640190fd5b6004805473ffffffffffffffffffffffffffffffffffffffff1916600160a060020a0384811691909117918290556040519116907f1edf3afd4ac789736e00d216cd88be164ddcef26a6eedcc30cdb0cb62f3741b190600090a2506001919050565b600054600160a060020a03163314610e1557600080fd5b6040805160e560020a62461bcd02815260206004820181905260248201527f72656e6f756e63696e67206f776e65727368697020697320626c6f636b65642e604482015290519081900360640190fd5b60008054600160a060020a03163314610e7d57600080fd5b600260009054906101000a9004600160a060020a0316600160a060020a0316638456cb596040518163ffffffff1660e060020a028152600401600060405180830381600087803b158015610ed057600080fd5b505af1158015610ee4573d6000803e3d6000fd5b50506040517f9e87fac88ff661f02d44f95383c817fece4bce600a3dab7a54406878b965e752925060009150a150600190565b600054600160a060020a031681565b600354600160a060020a031681565b600454600160a060020a031681565b600154600160a060020a031681565b60008054600160a060020a03163314610f6b57600080fd5b600160a060020a0382161515610fcb576040805160e560020a62461bcd02815260206004820152601860248201527f696e76616c6964206e65774f776e657220616464726573730000000000000000604482015290519081900360640190fd5b82600160a060020a031663f2fde38b836040518263ffffffff1660e060020a0281526004018082600160a060020a0316600160a060020a03168152602001915050600060405180830381600087803b15801561102657600080fd5b505af115801561103a573d6000803e3d6000fd5b505060408051600160a060020a0380881682528616602082015281517f18838a3b49e4b76edd553a08a7ae770b10cad20889e3d45de720694464f15ca09450908190039091019150a150600192915050565b600054600160a060020a031633146110a357600080fd5b6001805473ffffffffffffffffffffffffffffffffffffffff1916600160a060020a0392909216919091179055565b60008054600160a060020a031633146110ea57600080fd5b600160a060020a038216151561114a576040805160e560020a62461bcd02815260206004820152601860248201527f696e76616c6964205f6d656d6265727320616464726573730000000000000000604482015290519081900360640190fd5b6003805473ffffffffffffffffffffffffffffffffffffffff1916600160a060020a0384811691909117918290556040519116907fc1ab8227dcc82b3165b89762b5698f88dd96b65581d137b10770a84b27df6a9090600090a2506001919050565b600254600160a060020a031681565b82600160a060020a031663a9059cbb83836040518363ffffffff1660e060020a0281526004018083600160a060020a0316600160a060020a0316815260200182815260200192505050602060405180830381600087803b15801561121e57600080fd5b505af1158015611232573d6000803e3d6000fd5b505050506040513d602081101561124857600080fd5b5051151561125557600080fd5b5050505600a165627a7a723058204b74ae7f57adfe3f7e07e8fe828d75afea4519fa4bee876865d82d386427d3d80029",
  "source": "pragma solidity 0.4.24;\n\nimport \"../utils/OwnableContract.sol\";\nimport \"../utils/OwnableContractOwner.sol\";\nimport \"./ControllerInterface.sol\";\nimport \"../factory/MembersInterface.sol\";\nimport \"../token/WrappedToken.sol\";\n\n\ncontract Controller is ControllerInterface, OwnableContract, OwnableContractOwner {\n\n    WrappedToken public token;\n    MembersInterface public members;\n    address public factory;\n\n    constructor(WrappedToken _token) public {\n        require(_token != address(0), \"invalid _token address\");\n        token = _token;\n    }\n\n    modifier onlyFactory() {\n        require(msg.sender == factory, \"sender not authorized for minting or burning.\");\n        _;\n    }\n\n    // setters\n    event MembersSet(MembersInterface indexed members);\n\n    function setMembers(MembersInterface _members) external onlyOwner returns (bool) {\n        require(_members != address(0), \"invalid _members address\");\n        members = _members;\n        emit MembersSet(members);\n        return true;\n    }\n\n    event FactorySet(address indexed factory);\n\n    function setFactory(address _factory) external onlyOwner returns (bool) {\n        require(_factory != address(0), \"invalid _factory address\");\n        factory = _factory;\n        emit FactorySet(factory);\n        return true;\n    }\n\n    // only owner actions on token\n    event Paused();\n\n    function pause() external onlyOwner returns (bool) {\n        token.pause();\n        emit Paused();\n        return true;\n    }\n\n    event Unpaused();\n\n    function unpause() external onlyOwner returns (bool) {\n        token.unpause();\n        emit Unpaused();\n        return true;\n    }\n\n    // only factory actions on token\n    function mint(address to, uint amount) external onlyFactory returns (bool) {\n        require(to != address(0), \"invalid to address\");\n        require(!token.paused(), \"token is paused.\");\n        require(token.mint(to, amount), \"minting failed.\");\n        return true;\n    }\n\n    function burn(uint value) external onlyFactory returns (bool) {\n        require(!token.paused(), \"token is paused.\");\n        token.burn(value);\n        return true;\n    }\n\n    // all accessible\n    function isCustodian(address addr) external view returns (bool) {\n        return members.isCustodian(addr);\n    }\n\n    function isMerchant(address addr) external view returns (bool) {\n        return members.isMerchant(addr);\n    }\n\n    function getToken() external view returns (ERC20) {\n        return token;\n    }\n\n    // overriding\n    function renounceOwnership() public onlyOwner {\n        revert(\"renouncing ownership is blocked.\");\n    }\n}\n",
  "sourcePath": "contracts/controller/Controller.sol",
  "compiler": {
    "name": "solc",
    "version": "0.4.24+commit.e67f0147.Emscripten.clang"
  },
  "schemaVersion": "2.0.1",
  "updatedAt": "2021-08-14T17:04:47.481Z"
}