{
  "contractName": "Factory",
  "abi": [
    {
      "constant": true,
      "inputs": [
        {
          "name": "",
          "type": "address"
        }
      ],
      "name": "custodianDepositAddress",
      "outputs": [
        {
          "name": "",
          "type": "string"
        }
      ],
      "payable": false,
      "stateMutability": "view",
      "type": "function"
    },
    {
      "constant": false,
      "inputs": [
        {
          "name": "_token",
          "type": "address"
        }
      ],
      "name": "reclaimToken",
      "outputs": [],
      "payable": false,
      "stateMutability": "nonpayable",
      "type": "function"
    },
    {
      "constant": true,
      "inputs": [
        {
          "name": "",
          "type": "uint256"
        }
      ],
      "name": "mintRequests",
      "outputs": [
        {
          "name": "requester",
          "type": "address"
        },
        {
          "name": "amount",
          "type": "uint256"
        },
        {
          "name": "depositAddress",
          "type": "string"
        },
        {
          "name": "txid",
          "type": "string"
        },
        {
          "name": "nonce",
          "type": "uint256"
        },
        {
          "name": "timestamp",
          "type": "uint256"
        },
        {
          "name": "status",
          "type": "uint8"
        }
      ],
      "payable": false,
      "stateMutability": "view",
      "type": "function"
    },
    {
      "constant": false,
      "inputs": [],
      "name": "claimOwnership",
      "outputs": [],
      "payable": false,
      "stateMutability": "nonpayable",
      "type": "function"
    },
    {
      "constant": true,
      "inputs": [
        {
          "name": "",
          "type": "address"
        }
      ],
      "name": "merchantDepositAddress",
      "outputs": [
        {
          "name": "",
          "type": "string"
        }
      ],
      "payable": false,
      "stateMutability": "view",
      "type": "function"
    },
    {
      "constant": true,
      "inputs": [
        {
          "name": "",
          "type": "uint256"
        }
      ],
      "name": "burnRequests",
      "outputs": [
        {
          "name": "requester",
          "type": "address"
        },
        {
          "name": "amount",
          "type": "uint256"
        },
        {
          "name": "depositAddress",
          "type": "string"
        },
        {
          "name": "txid",
          "type": "string"
        },
        {
          "name": "nonce",
          "type": "uint256"
        },
        {
          "name": "timestamp",
          "type": "uint256"
        },
        {
          "name": "status",
          "type": "uint8"
        }
      ],
      "payable": false,
      "stateMutability": "view",
      "type": "function"
    },
    {
      "constant": false,
      "inputs": [],
      "name": "renounceOwnership",
      "outputs": [],
      "payable": false,
      "stateMutability": "nonpayable",
      "type": "function"
    },
    {
      "constant": true,
      "inputs": [],
      "name": "owner",
      "outputs": [
        {
          "name": "",
          "type": "address"
        }
      ],
      "payable": false,
      "stateMutability": "view",
      "type": "function"
    },
    {
      "constant": true,
      "inputs": [
        {
          "name": "",
          "type": "bytes32"
        }
      ],
      "name": "mintRequestNonce",
      "outputs": [
        {
          "name": "",
          "type": "uint256"
        }
      ],
      "payable": false,
      "stateMutability": "view",
      "type": "function"
    },
    {
      "constant": true,
      "inputs": [
        {
          "name": "",
          "type": "bytes32"
        }
      ],
      "name": "burnRequestNonce",
      "outputs": [
        {
          "name": "",
          "type": "uint256"
        }
      ],
      "payable": false,
      "stateMutability": "view",
      "type": "function"
    },
    {
      "constant": true,
      "inputs": [],
      "name": "pendingOwner",
      "outputs": [
        {
          "name": "",
          "type": "address"
        }
      ],
      "payable": false,
      "stateMutability": "view",
      "type": "function"
    },
    {
      "constant": false,
      "inputs": [
        {
          "name": "newOwner",
          "type": "address"
        }
      ],
      "name": "transferOwnership",
      "outputs": [],
      "payable": false,
      "stateMutability": "nonpayable",
      "type": "function"
    },
    {
      "constant": true,
      "inputs": [],
      "name": "controller",
      "outputs": [
        {
          "name": "",
          "type": "address"
        }
      ],
      "payable": false,
      "stateMutability": "view",
      "type": "function"
    },
    {
      "inputs": [
        {
          "name": "_controller",
          "type": "address"
        }
      ],
      "payable": false,
      "stateMutability": "nonpayable",
      "type": "constructor"
    },
    {
      "anonymous": false,
      "inputs": [
        {
          "indexed": true,
          "name": "merchant",
          "type": "address"
        },
        {
          "indexed": true,
          "name": "sender",
          "type": "address"
        },
        {
          "indexed": false,
          "name": "depositAddress",
          "type": "string"
        }
      ],
      "name": "CustodianDepositAddressSet",
      "type": "event"
    },
    {
      "anonymous": false,
      "inputs": [
        {
          "indexed": true,
          "name": "merchant",
          "type": "address"
        },
        {
          "indexed": false,
          "name": "depositAddress",
          "type": "string"
        }
      ],
      "name": "MerchantDepositAddressSet",
      "type": "event"
    },
    {
      "anonymous": false,
      "inputs": [
        {
          "indexed": true,
          "name": "nonce",
          "type": "uint256"
        },
        {
          "indexed": true,
          "name": "requester",
          "type": "address"
        },
        {
          "indexed": false,
          "name": "amount",
          "type": "uint256"
        },
        {
          "indexed": false,
          "name": "depositAddress",
          "type": "string"
        },
        {
          "indexed": false,
          "name": "txid",
          "type": "string"
        },
        {
          "indexed": false,
          "name": "timestamp",
          "type": "uint256"
        },
        {
          "indexed": false,
          "name": "requestHash",
          "type": "bytes32"
        }
      ],
      "name": "MintRequestAdd",
      "type": "event"
    },
    {
      "anonymous": false,
      "inputs": [
        {
          "indexed": true,
          "name": "nonce",
          "type": "uint256"
        },
        {
          "indexed": true,
          "name": "requester",
          "type": "address"
        },
        {
          "indexed": false,
          "name": "requestHash",
          "type": "bytes32"
        }
      ],
      "name": "MintRequestCancel",
      "type": "event"
    },
    {
      "anonymous": false,
      "inputs": [
        {
          "indexed": true,
          "name": "nonce",
          "type": "uint256"
        },
        {
          "indexed": true,
          "name": "requester",
          "type": "address"
        },
        {
          "indexed": false,
          "name": "amount",
          "type": "uint256"
        },
        {
          "indexed": false,
          "name": "depositAddress",
          "type": "string"
        },
        {
          "indexed": false,
          "name": "txid",
          "type": "string"
        },
        {
          "indexed": false,
          "name": "timestamp",
          "type": "uint256"
        },
        {
          "indexed": false,
          "name": "requestHash",
          "type": "bytes32"
        }
      ],
      "name": "MintConfirmed",
      "type": "event"
    },
    {
      "anonymous": false,
      "inputs": [
        {
          "indexed": true,
          "name": "nonce",
          "type": "uint256"
        },
        {
          "indexed": true,
          "name": "requester",
          "type": "address"
        },
        {
          "indexed": false,
          "name": "amount",
          "type": "uint256"
        },
        {
          "indexed": false,
          "name": "depositAddress",
          "type": "string"
        },
        {
          "indexed": false,
          "name": "txid",
          "type": "string"
        },
        {
          "indexed": false,
          "name": "timestamp",
          "type": "uint256"
        },
        {
          "indexed": false,
          "name": "requestHash",
          "type": "bytes32"
        }
      ],
      "name": "MintRejected",
      "type": "event"
    },
    {
      "anonymous": false,
      "inputs": [
        {
          "indexed": true,
          "name": "nonce",
          "type": "uint256"
        },
        {
          "indexed": true,
          "name": "requester",
          "type": "address"
        },
        {
          "indexed": false,
          "name": "amount",
          "type": "uint256"
        },
        {
          "indexed": false,
          "name": "depositAddress",
          "type": "string"
        },
        {
          "indexed": false,
          "name": "timestamp",
          "type": "uint256"
        },
        {
          "indexed": false,
          "name": "requestHash",
          "type": "bytes32"
        }
      ],
      "name": "Burned",
      "type": "event"
    },
    {
      "anonymous": false,
      "inputs": [
        {
          "indexed": true,
          "name": "nonce",
          "type": "uint256"
        },
        {
          "indexed": true,
          "name": "requester",
          "type": "address"
        },
        {
          "indexed": false,
          "name": "amount",
          "type": "uint256"
        },
        {
          "indexed": false,
          "name": "depositAddress",
          "type": "string"
        },
        {
          "indexed": false,
          "name": "txid",
          "type": "string"
        },
        {
          "indexed": false,
          "name": "timestamp",
          "type": "uint256"
        },
        {
          "indexed": false,
          "name": "inputRequestHash",
          "type": "bytes32"
        }
      ],
      "name": "BurnConfirmed",
      "type": "event"
    },
    {
      "anonymous": false,
      "inputs": [
        {
          "indexed": true,
          "name": "previousOwner",
          "type": "address"
        }
      ],
      "name": "OwnershipRenounced",
      "type": "event"
    },
    {
      "anonymous": false,
      "inputs": [
        {
          "indexed": true,
          "name": "previousOwner",
          "type": "address"
        },
        {
          "indexed": true,
          "name": "newOwner",
          "type": "address"
        }
      ],
      "name": "OwnershipTransferred",
      "type": "event"
    },
    {
      "constant": false,
      "inputs": [
        {
          "name": "merchant",
          "type": "address"
        },
        {
          "name": "depositAddress",
          "type": "string"
        }
      ],
      "name": "setCustodianDepositAddress",
      "outputs": [
        {
          "name": "",
          "type": "bool"
        }
      ],
      "payable": false,
      "stateMutability": "nonpayable",
      "type": "function"
    },
    {
      "constant": false,
      "inputs": [
        {
          "name": "depositAddress",
          "type": "string"
        }
      ],
      "name": "setMerchantDepositAddress",
      "outputs": [
        {
          "name": "",
          "type": "bool"
        }
      ],
      "payable": false,
      "stateMutability": "nonpayable",
      "type": "function"
    },
    {
      "constant": false,
      "inputs": [
        {
          "name": "amount",
          "type": "uint256"
        },
        {
          "name": "txid",
          "type": "string"
        },
        {
          "name": "depositAddress",
          "type": "string"
        }
      ],
      "name": "addMintRequest",
      "outputs": [
        {
          "name": "",
          "type": "bool"
        }
      ],
      "payable": false,
      "stateMutability": "nonpayable",
      "type": "function"
    },
    {
      "constant": false,
      "inputs": [
        {
          "name": "requestHash",
          "type": "bytes32"
        }
      ],
      "name": "cancelMintRequest",
      "outputs": [
        {
          "name": "",
          "type": "bool"
        }
      ],
      "payable": false,
      "stateMutability": "nonpayable",
      "type": "function"
    },
    {
      "constant": false,
      "inputs": [
        {
          "name": "requestHash",
          "type": "bytes32"
        }
      ],
      "name": "confirmMintRequest",
      "outputs": [
        {
          "name": "",
          "type": "bool"
        }
      ],
      "payable": false,
      "stateMutability": "nonpayable",
      "type": "function"
    },
    {
      "constant": false,
      "inputs": [
        {
          "name": "requestHash",
          "type": "bytes32"
        }
      ],
      "name": "rejectMintRequest",
      "outputs": [
        {
          "name": "",
          "type": "bool"
        }
      ],
      "payable": false,
      "stateMutability": "nonpayable",
      "type": "function"
    },
    {
      "constant": false,
      "inputs": [
        {
          "name": "amount",
          "type": "uint256"
        }
      ],
      "name": "burn",
      "outputs": [
        {
          "name": "",
          "type": "bool"
        }
      ],
      "payable": false,
      "stateMutability": "nonpayable",
      "type": "function"
    },
    {
      "constant": false,
      "inputs": [
        {
          "name": "requestHash",
          "type": "bytes32"
        },
        {
          "name": "txid",
          "type": "string"
        }
      ],
      "name": "confirmBurnRequest",
      "outputs": [
        {
          "name": "",
          "type": "bool"
        }
      ],
      "payable": false,
      "stateMutability": "nonpayable",
      "type": "function"
    },
    {
      "constant": true,
      "inputs": [
        {
          "name": "nonce",
          "type": "uint256"
        }
      ],
      "name": "getMintRequest",
      "outputs": [
        {
          "name": "requestNonce",
          "type": "uint256"
        },
        {
          "name": "requester",
          "type": "address"
        },
        {
          "name": "amount",
          "type": "uint256"
        },
        {
          "name": "depositAddress",
          "type": "string"
        },
        {
          "name": "txid",
          "type": "string"
        },
        {
          "name": "timestamp",
          "type": "uint256"
        },
        {
          "name": "status",
          "type": "string"
        },
        {
          "name": "requestHash",
          "type": "bytes32"
        }
      ],
      "payable": false,
      "stateMutability": "view",
      "type": "function"
    },
    {
      "constant": true,
      "inputs": [],
      "name": "getMintRequestsLength",
      "outputs": [
        {
          "name": "length",
          "type": "uint256"
        }
      ],
      "payable": false,
      "stateMutability": "view",
      "type": "function"
    },
    {
      "constant": true,
      "inputs": [
        {
          "name": "nonce",
          "type": "uint256"
        }
      ],
      "name": "getBurnRequest",
      "outputs": [
        {
          "name": "requestNonce",
          "type": "uint256"
        },
        {
          "name": "requester",
          "type": "address"
        },
        {
          "name": "amount",
          "type": "uint256"
        },
        {
          "name": "depositAddress",
          "type": "string"
        },
        {
          "name": "txid",
          "type": "string"
        },
        {
          "name": "timestamp",
          "type": "uint256"
        },
        {
          "name": "status",
          "type": "string"
        },
        {
          "name": "requestHash",
          "type": "bytes32"
        }
      ],
      "payable": false,
      "stateMutability": "view",
      "type": "function"
    },
    {
      "constant": true,
      "inputs": [],
      "name": "getBurnRequestsLength",
      "outputs": [
        {
          "name": "length",
          "type": "uint256"
        }
      ],
      "payable": false,
      "stateMutability": "view",
      "type": "function"
    }
  ],
  "bytecode": "0x608060405234801561001057600080fd5b506040516020806137df833981016040525160008054600160a060020a03191633179055600160a060020a03811615156100ab57604080517f08c379a000000000000000000000000000000000000000000000000000000000815260206004820152601b60248201527f696e76616c6964205f636f6e74726f6c6c657220616464726573730000000000604482015290519081900360640190fd5b60028054600160a060020a03909216600160a060020a03199283168117909155600080549092161790556136fb806100e46000396000f30060806040526004361061012f5763ffffffff60e060020a60003504166314990ace811461013457806317ffc320146101ca5780632bf90baa146101ed578063311104f3146102195780633a0fa69014610240578063424e65751461026057806342966c68146103995780634e71e0c8146103b157806353a6bd44146103c65780636406c10c146103e7578063715018a6146103ff57806372f69a721461041457806373e6b0b814610429578063861f92a8146104565780638da5cb5b1461046e5780638e24a7641461049f5780639355f0a4146104cf5780639ad4b86b146104f3578063b69b22d81461050b578063c06e2d24146106a4578063c72551be146106bc578063e21c40c0146106d4578063e30c3978146106ec578063f2fde38b14610701578063f77c479114610722575b600080fd5b34801561014057600080fd5b50610155600160a060020a0360043516610737565b6040805160208082528351818301528351919283929083019185019080838360005b8381101561018f578181015183820152602001610177565b50505050905090810190601f1680156101bc5780820380516001836020036101000a031916815260200191505b509250505060405180910390f35b3480156101d657600080fd5b506101eb600160a060020a03600435166107d2565b005b3480156101f957600080fd5b5061020560043561089e565b604080519115158252519081900360200190f35b34801561022557600080fd5b5061022e610bf7565b60408051918252519081900360200190f35b34801561024c57600080fd5b506102056004803560248101910135610bfe565b34801561026c57600080fd5b50610278600435610dc8565b6040518088600160a060020a0316600160a060020a0316815260200187815260200180602001806020018681526020018581526020018460038111156102ba57fe5b60ff168152602001838103835288818151815260200191508051906020019080838360005b838110156102f75781810151838201526020016102df565b50505050905090810190601f1680156103245780820380516001836020036101000a031916815260200191505b50838103825287518152875160209182019189019080838360005b8381101561035757818101518382015260200161033f565b50505050905090810190601f1680156103845780820380516001836020036101000a031916815260200191505b50995050505050505050505060405180910390f35b3480156103a557600080fd5b50610205600435610f38565b3480156103bd57600080fd5b506101eb6115e9565b3480156103d257600080fd5b50610155600160a060020a0360043516611671565b3480156103f357600080fd5b506102786004356116d9565b34801561040b57600080fd5b506101eb6116e7565b34801561042057600080fd5b5061022e611753565b34801561043557600080fd5b5061020560048035600160a060020a03169060248035908101910135611759565b34801561046257600080fd5b50610205600435611a92565b34801561047a57600080fd5b50610483611c4c565b60408051600160a060020a039092168252519081900360200190f35b3480156104ab57600080fd5b50610205600480359060248035808201929081013591604435908101910135611c5b565b3480156104db57600080fd5b50610205600480359060248035908101910135612174565b3480156104ff57600080fd5b5061022e60043561258e565b34801561051757600080fd5b506105236004356125a0565b6040518089815260200188600160a060020a0316600160a060020a031681526020018781526020018060200180602001868152602001806020018560001916600019168152602001848103845289818151815260200191508051906020019080838360005b838110156105a0578181015183820152602001610588565b50505050905090810190601f1680156105cd5780820380516001836020036101000a031916815260200191505b5084810383528851815288516020918201918a019080838360005b838110156106005781810151838201526020016105e8565b50505050905090810190601f16801561062d5780820380516001836020036101000a031916815260200191505b50848103825286518152865160209182019188019080838360005b83811015610660578181015183820152602001610648565b50505050905090810190601f16801561068d5780820380516001836020036101000a031916815260200191505b509b50505050505050505050505060405180910390f35b3480156106b057600080fd5b506102056004356127b7565b3480156106c857600080fd5b5061022e600435612995565b3480156106e057600080fd5b506105236004356129a7565b3480156106f857600080fd5b50610483612bdc565b34801561070d57600080fd5b506101eb600160a060020a0360043516612beb565b34801561072e57600080fd5b50610483612c31565b60036020908152600091825260409182902080548351601f6002600019610100600186161502019093169290920491820184900484028101840190945280845290918301828280156107ca5780601f1061079f576101008083540402835291602001916107ca565b820191906000526020600020905b8154815290600101906020018083116107ad57829003601f168201915b505050505081565b60008054600160a060020a031633146107ea57600080fd5b604080517f70a082310000000000000000000000000000000000000000000000000000000081523060048201529051600160a060020a038416916370a082319160248083019260209291908290030181600087803b15801561084b57600080fd5b505af115801561085f573d6000803e3d6000fd5b505050506040513d602081101561087557600080fd5b505160005490915061089a90600160a060020a0384811691168363ffffffff612c4016565b5050565b6000806108a9613538565b6002546040805160e260020a630d7203230281523360048201529051600160a060020a03909216916335c80c8c916024808201926020929091908290030181600087803b1580156108f957600080fd5b505af115801561090d573d6000803e3d6000fd5b505050506040513d602081101561092357600080fd5b50511515610969576040805160e560020a62461bcd02815260206004820152601760248201526000805160206136b0833981519152604482015290519081900360640190fd5b61097284612cdf565b600780549294509092506002918490811061098957fe5b60009182526020909120600660079092020101805460ff191660018360038111156109b057fe5b02179055506002548151602080840151604080517f40c10f19000000000000000000000000000000000000000000000000000000008152600160a060020a03948516600482015260248101929092525192909316926340c10f1992604480830193928290030181600087803b158015610a2857600080fd5b505af1158015610a3c573d6000803e3d6000fd5b505050506040513d6020811015610a5257600080fd5b50511515610aaa576040805160e560020a62461bcd02815260206004820152600b60248201527f6d696e74206661696c6564000000000000000000000000000000000000000000604482015290519081900360640190fd5b8060000151600160a060020a031681608001517f051f4ba27061b0e6dc829669a7baa8bba9cf7f6cd2f95e1f0bdd9c22126d8b218360200151846040015185606001518660a001518a6040518086815260200180602001806020018581526020018460001916600019168152602001838103835287818151815260200191508051906020019080838360005b83811015610b4e578181015183820152602001610b36565b50505050905090810190601f168015610b7b5780820380516001836020036101000a031916815260200191505b50838103825286518152865160209182019188019080838360005b83811015610bae578181015183820152602001610b96565b50505050905090810190601f168015610bdb5780820380516001836020036101000a031916815260200191505b5097505050505050505060405180910390a35060019392505050565b6007545b90565b6002546040805160e060020a631a2f71670281523360048201529051600092600160a060020a031691631a2f716791602480830192602092919082900301818787803b158015610c4d57600080fd5b505af1158015610c61573d6000803e3d6000fd5b505050506040513d6020811015610c7757600080fd5b50511515610cbd576040805160e560020a62461bcd0281526020600482015260166024820152600080516020613690833981519152604482015290519081900360640190fd5b610cf683838080601f01602080910402602001604051908101604052809392919081815260200183838082843750612f0b945050505050565b15610d4b576040805160e560020a62461bcd02815260206004820152601d60248201527f696e76616c6964206173736574206465706f7369742061646472657373000000604482015290519081900360640190fd5b336000908152600460205260409020610d65908484613589565b5033600160a060020a03167e2710e4743caa591c537cdab906e6a5d0f6466c6dcff14aeadeb4165f4252e384846040518080602001828103825284848281815260200192508082843760405192018290039550909350505050a250600192915050565b6007805482908110610dd657fe5b6000918252602091829020600791909102018054600180830154600280850180546040805161010096831615969096026000190190911692909204601f8101889004880285018801909252818452600160a060020a0390941696509094919291830182828015610e875780601f10610e5c57610100808354040283529160200191610e87565b820191906000526020600020905b815481529060010190602001808311610e6a57829003601f168201915b5050505060038301805460408051602060026001851615610100026000190190941693909304601f8101849004840282018401909252818152949594935090830182828015610f175780601f10610eec57610100808354040283529160200191610f17565b820191906000526020600020905b815481529060010190602001808311610efa57829003601f168201915b50505050600483015460058401546006909401549293909290915060ff1687565b600060606000806060610f49613538565b6002546040805160e060020a631a2f71670281523360048201529051600092600160a060020a031691631a2f716791602480830192602092919082900301818787803b158015610f9857600080fd5b505af1158015610fac573d6000803e3d6000fd5b505050506040513d6020811015610fc257600080fd5b50511515611008576040805160e560020a62461bcd0281526020600482015260166024820152600080516020613690833981519152604482015290519081900360640190fd5b3360009081526004602090815260409182902080548351601f60026000196101006001861615020190931692909204918201849004840281018401909452808452909183018282801561109c5780601f106110715761010080835404028352916020019161109c565b820191906000526020600020905b81548152906001019060200180831161107f57829003601f168201915b505050505095506110ac86612f0b565b15611127576040805160e560020a62461bcd02815260206004820152602a60248201527f6d65726368616e74206173736574206465706f7369742061646472657373207760448201527f6173206e6f742073657400000000000000000000000000000000000000000000606482015290519081900360840190fd5b6008549450611134612f2f565b60408051602081810183526000808352835160e0810185523381529182018d90529281018a9052606081018290526080810189905260a08101849052929650945060c0820152915061118582612f33565b6000818152600660209081526040808320899055600880546001810180835591909452865160079094027ff3f7a9fe364faab93b216da50a3214154f22a0a2b415b23a84c8169e8b636ee381018054600160a060020a0390961673ffffffffffffffffffffffffffffffffffffffff19909616959095178555878401517ff3f7a9fe364faab93b216da50a3214154f22a0a2b415b23a84c8169e8b636ee48201559187015180519596509094879493611262937ff3f7a9fe364faab93b216da50a3214154f22a0a2b415b23a84c8169e8b636ee501920190613607565b506060820151805161127e916003840191602090910190613607565b506080820151600482015560a0820151600582015560c082015160068201805460ff191660018360038111156112b057fe5b0217905550505050600260009054906101000a9004600160a060020a0316600160a060020a03166321df0da76040518163ffffffff1660e060020a028152600401602060405180830381600087803b15801561130b57600080fd5b505af115801561131f573d6000803e3d6000fd5b505050506040513d602081101561133557600080fd5b5051600254604080517f23b872dd000000000000000000000000000000000000000000000000000000008152336004820152600160a060020a039283166024820152604481018c9052905191909216916323b872dd9160648083019260209291908290030181600087803b1580156113ac57600080fd5b505af11580156113c0573d6000803e3d6000fd5b505050506040513d60208110156113d657600080fd5b5051151561142e576040805160e560020a62461bcd02815260206004820152601e60248201527f7472616e7366657220746f6b656e7320746f206275726e206661696c65640000604482015290519081900360640190fd5b600254604080517f42966c68000000000000000000000000000000000000000000000000000000008152600481018b90529051600160a060020a03909216916342966c68916024808201926020929091908290030181600087803b15801561149557600080fd5b505af11580156114a9573d6000803e3d6000fd5b505050506040513d60208110156114bf57600080fd5b50511515611517576040805160e560020a62461bcd02815260206004820152600b60248201527f6275726e206661696c6564000000000000000000000000000000000000000000604482015290519081900360640190fd5b33600160a060020a0316857f865e64c3fa22a0daee479fc02875d3e97d581930b9679232344d4d5dcce6a7b28a89888660405180858152602001806020018481526020018360001916600019168152602001828103825285818151815260200191508051906020019080838360005b8381101561159e578181015183820152602001611586565b50505050905090810190601f1680156115cb5780820380516001836020036101000a031916815260200191505b509550505050505060405180910390a3506001979650505050505050565b600154600160a060020a0316331461160057600080fd5b60015460008054604051600160a060020a0393841693909116917f8be0079c531659141344cd1fd0a4f28419497f9722a3daafe3b4186f6b6457e091a3600180546000805473ffffffffffffffffffffffffffffffffffffffff19908116600160a060020a03841617909155169055565b60046020908152600091825260409182902080548351601f6002600019610100600186161502019093169290920491820184900484028101840190945280845290918301828280156107ca5780601f1061079f576101008083540402835291602001916107ca565b6008805482908110610dd657fe5b600054600160a060020a031633146116fe57600080fd5b60008054604051600160a060020a03909116917ff8df31144d9c2f0f6b59d69b8b98abd5459d07f2742c4df920b25aae33c6482091a26000805473ffffffffffffffffffffffffffffffffffffffff19169055565b60085490565b6002546040805160e260020a630d7203230281523360048201529051600092600160a060020a0316916335c80c8c91602480830192602092919082900301818787803b1580156117a857600080fd5b505af11580156117bc573d6000803e3d6000fd5b505050506040513d60208110156117d257600080fd5b50511515611818576040805160e560020a62461bcd02815260206004820152601760248201526000805160206136b0833981519152604482015290519081900360640190fd5b600160a060020a0384161515611878576040805160e560020a62461bcd02815260206004820152601860248201527f696e76616c6964206d65726368616e7420616464726573730000000000000000604482015290519081900360640190fd5b6002546040805160e060020a631a2f7167028152600160a060020a03878116600483015291519190921691631a2f71679160248083019260209291908290030181600087803b1580156118ca57600080fd5b505af11580156118de573d6000803e3d6000fd5b505050506040513d60208110156118f457600080fd5b50511515611972576040805160e560020a62461bcd02815260206004820152602860248201527f6d65726368616e742061646472657373206973206e6f742061207265616c206d60448201527f65726368616e742e000000000000000000000000000000000000000000000000606482015290519081900360840190fd5b6119ab83838080601f01602080910402602001604051908101604052809392919081815260200183838082843750612f0b945050505050565b15611a00576040805160e560020a62461bcd02815260206004820152601d60248201527f696e76616c6964206173736574206465706f7369742061646472657373000000604482015290519081900360640190fd5b600160a060020a0384166000908152600360205260409020611a23908484613589565b5033600160a060020a031684600160a060020a03167f889518f7687592efeb6e775822956ccb4e2a41cfb5bab0438d634523ccf6336d85856040518080602001828103825284848281815260200192508082843760405192018290039550909350505050a35060019392505050565b600080611a9d613538565b6002546040805160e260020a630d7203230281523360048201529051600160a060020a03909216916335c80c8c916024808201926020929091908290030181600087803b158015611aed57600080fd5b505af1158015611b01573d6000803e3d6000fd5b505050506040513d6020811015611b1757600080fd5b50511515611b5d576040805160e560020a62461bcd02815260206004820152601760248201526000805160206136b0833981519152604482015290519081900360640190fd5b611b6684612cdf565b6007805492945090925060039184908110611b7d57fe5b60009182526020909120600660079092020101805460ff19166001836003811115611ba457fe5b02179055508060000151600160a060020a031681608001517fdadc06f5b98131083e96b856c044184efd23ae2e797a876fd80aa5dae4f724558360200151846040015185606001518660a001518a60405180868152602001806020018060200185815260200184600019166000191681526020018381038352878181518152602001915080519060200190808383600083811015610b4e578181015183820152602001610b36565b600054600160a060020a031681565b6000806000611c68613538565b6002546040805160e060020a631a2f71670281523360048201529051600092600160a060020a031691631a2f716791602480830192602092919082900301818787803b158015611cb757600080fd5b505af1158015611ccb573d6000803e3d6000fd5b505050506040513d6020811015611ce157600080fd5b50511515611d27576040805160e560020a62461bcd0281526020600482015260166024820152600080516020613690833981519152604482015290519081900360640190fd5b611d6087878080601f01602080910402602001604051908101604052809392919081815260200183838082843750612f0b945050505050565b15611db5576040805160e560020a62461bcd02815260206004820152601d60248201527f696e76616c6964206173736574206465706f7369742061646472657373000000604482015290519081900360640190fd5b611e8887878080601f0160208091040260200160405190810160405280939291908181526020018383808284375050336000908152600360209081526040918290208054835160026001831615610100026000190190921691909104601f8101849004840282018401909452838152965094509092508401905082828015611e7e5780601f10611e5357610100808354040283529160200191611e7e565b820191906000526020600020905b815481529060010190602001808311611e6157829003601f168201915b50505050506130c9565b1515611ede576040805160e560020a62461bcd02815260206004820152601b60248201527f77726f6e67206173736574206465706f73697420616464726573730000000000604482015290519081900360640190fd5b6007549350611eeb612f2f565b925060e06040519081016040528033600160a060020a031681526020018b815260200188888080601f01602080910402602001604051908101604052809392919081815260200183838082843782019150505050505081526020018a8a8080601f0160208091040260200160405190810160405280939291908181526020018383808284375050509284525050506020810186905260408101859052606001600090529150611f9982612f33565b6000818152600560209081526040808320889055600780546001810180835594829052875191027fa66cc928b5edb82af9bd49922954155ab7b0942694bea4ce44661d9a8736c68881018054600160a060020a0390931673ffffffffffffffffffffffffffffffffffffffff19909316929092178255878401517fa66cc928b5edb82af9bd49922954155ab7b0942694bea4ce44661d9a8736c689820155918701518051959650939487949193612074937fa66cc928b5edb82af9bd49922954155ab7b0942694bea4ce44661d9a8736c68a01920190613607565b5060608201518051612090916003840191602090910190613607565b506080820151600482015560a0820151600582015560c082015160068201805460ff191660018360038111156120c257fe5b021790555050505033600160a060020a0316847f09e00024b3e14e42d4e78c05bf370a34c2e4ce4027dad38abafdb1bf49da432f8c8a8a8e8e8a89604051808881526020018060200180602001858152602001846000191660001916815260200183810383528989828181526020019250808284379091018481038352878152602001905087878082843760405192018290039b50909950505050505050505050a35060019998505050505050505050565b60008061217f613538565b6002546040805160e260020a630d7203230281523360048201529051600160a060020a03909216916335c80c8c916024808201926020929091908290030181600087803b1580156121cf57600080fd5b505af11580156121e3573d6000803e3d6000fd5b505050506040513d60208110156121f957600080fd5b5051151561223f576040805160e560020a62461bcd02815260206004820152601760248201526000805160206136b0833981519152604482015290519081900360640190fd5b61224886613256565b8092508193505050848460088481548110151561226157fe5b9060005260206000209060070201600301919061227f929190613589565b50600260088381548110151561229157fe5b60009182526020909120600660079092020101805460ff191660018360038111156122b857fe5b021790555081600660006124726008868154811015156122d457fe5b60009182526020918290206040805160e0810182526007939093029091018054600160a060020a03168352600180820154848601526002808301805485516101009482161594909402600019011691909104601f81018790048702830187018552808352949592949386019391929091908301828280156123965780601f1061236b57610100808354040283529160200191612396565b820191906000526020600020905b81548152906001019060200180831161237957829003601f168201915b505050918352505060038201805460408051602060026001851615610100026000190190941693909304601f810184900484028201840190925281815293820193929183018282801561242a5780601f106123ff5761010080835404028352916020019161242a565b820191906000526020600020905b81548152906001019060200180831161240d57829003601f168201915b50505091835250506004820154602082015260058201546040820152600682015460609091019060ff16600381111561245f57fe5b600381111561246a57fe5b905250612f33565b60001916600019168152602001908152602001600020819055508060000151600160a060020a031681608001517f1949e77206780c38f7c6487c926f8a51280fcdbf63397a01a3428dbfccd2b09f8360200151846040015189898760a001518d6040518087815260200180602001806020018581526020018460001916600019168152602001838103835288818151815260200191508051906020019080838360005b8381101561252d578181015183820152602001612515565b50505050905090810190601f16801561255a5780820380516001836020036101000a031916815260200191505b50838103825286815260200187878082843760405192018290039a509098505050505050505050a350600195945050505050565b60056020526000908152604090205481565b60008060006060806000606060006125b6613538565b606060078b8154811015156125c757fe5b60009182526020918290206040805160e0810182526007939093029091018054600160a060020a03168352600180820154848601526002808301805485516101009482161594909402600019011691909104601f81018790048702830187018552808352949592949386019391929091908301828280156126895780601f1061265e57610100808354040283529160200191612689565b820191906000526020600020905b81548152906001019060200180831161266c57829003601f168201915b505050918352505060038201805460408051602060026001851615610100026000190190941693909304601f810184900484028201840190925281815293820193929183018282801561271d5780601f106126f25761010080835404028352916020019161271d565b820191906000526020600020905b81548152906001019060200180831161270057829003601f168201915b50505091835250506004820154602082015260058201546040820152600682015460609091019060ff16600381111561275257fe5b600381111561275d57fe5b8152505091506127708260c001516132d8565b905081608001519950816000015198508160200151975081604001519650816060015195508160a0015194508093506127a882612f33565b92505050919395975091939597565b6000806127c2613538565b6002546040805160e060020a631a2f71670281523360048201529051600160a060020a0390921691631a2f7167916024808201926020929091908290030181600087803b15801561281257600080fd5b505af1158015612826573d6000803e3d6000fd5b505050506040513d602081101561283c57600080fd5b50511515612882576040805160e560020a62461bcd0281526020600482015260166024820152600080516020613690833981519152604482015290519081900360640190fd5b61288b84612cdf565b80519193509150600160a060020a03163314612917576040805160e560020a62461bcd02815260206004820152603960248201527f63616e63656c2073656e64657220697320646966666572656e74207468616e2060448201527f70656e64696e67207265717565737420696e69746961746f7200000000000000606482015290519081900360840190fd5b600160078381548110151561292857fe5b60009182526020909120600660079092020101805460ff1916600183600381111561294f57fe5b0217905550604080518581529051339184917fb419f275eebfa354bbab2709955ee0c0e25ca95fae50a8e3672c5e3d9c931f589181900360200190a35060019392505050565b60066020526000908152604090205481565b600080600060608060006060600080606060088b8154811015156129c757fe5b6000918252602090912060079091020160068101549092506129eb9060ff166132d8565b9050816004015499508160000160009054906101000a9004600160a060020a0316985081600101549750816002018054600181600116156101000203166002900480601f016020809104026020016040519081016040528092919081815260200182805460018160011615610100020316600290048015612aad5780601f10612a8257610100808354040283529160200191612aad565b820191906000526020600020905b815481529060010190602001808311612a9057829003601f168201915b5050505060038401805460408051602060026001851615610100026000190190941693909304601f8101849004840282018401909252818152949b50919250830182828015612b3d5780601f10612b1257610100808354040283529160200191612b3d565b820191906000526020600020905b815481529060010190602001808311612b2057829003601f168201915b5050505060058401546040805160e0810182528654600160a060020a031681526001808801546020808401919091526002808a01805486516101009582161595909502600019011691909104601f81018390048302840183018652808452979d50949b5096995089966127a8969295508894938601939192908301828280156123965780601f1061236b57610100808354040283529160200191612396565b600154600160a060020a031681565b600054600160a060020a03163314612c0257600080fd5b6001805473ffffffffffffffffffffffffffffffffffffffff1916600160a060020a0392909216919091179055565b600254600160a060020a031681565b82600160a060020a031663a9059cbb83836040518363ffffffff1660e060020a0281526004018083600160a060020a0316600160a060020a0316815260200182815260200192505050602060405180830381600087803b158015612ca357600080fd5b505af1158015612cb7573d6000803e3d6000fd5b505050506040513d6020811015612ccd57600080fd5b50511515612cda57600080fd5b505050565b6000612ce9613538565b821515612d40576040805160e560020a62461bcd02815260206004820152601160248201527f7265717565737420686173682069732030000000000000000000000000000000604482015290519081900360640190fd5b600083815260056020526040902054600780549193509083908110612d6157fe5b60009182526020918290206040805160e0810182526007939093029091018054600160a060020a03168352600180820154848601526002808301805485516101009482161594909402600019011691909104601f8101879004870283018701855280835294959294938601939192909190830182828015612e235780601f10612df857610100808354040283529160200191612e23565b820191906000526020600020905b815481529060010190602001808311612e0657829003601f168201915b505050918352505060038201805460408051602060026001851615610100026000190190941693909304601f8101849004840282018401909252818152938201939291830182828015612eb75780601f10612e8c57610100808354040283529160200191612eb7565b820191906000526020600020905b815481529060010190602001808311612e9a57829003601f168201915b50505091835250506004820154602082015260058201546040820152600682015460609091019060ff166003811115612eec57fe5b6003811115612ef757fe5b9052509050612f06818461344c565b915091565b6000612f278260206040519081016040528060008152506130c9565b90505b919050565b4290565b6000816000015182602001518360400151846060015185608001518660a001516040516020018087600160a060020a0316600160a060020a031681526020018681526020018060200180602001858152602001848152602001838103835287818151815260200191508051906020019080838360005b83811015612fc1578181015183820152602001612fa9565b50505050905090810190601f168015612fee5780820380516001836020036101000a031916815260200191505b50838103825286518152865160209182019188019080838360005b83811015613021578181015183820152602001613009565b50505050905090810190601f16801561304e5780820380516001836020036101000a031916815260200191505b50985050505050505050506040516020818303038152906040526040518082805190602001908083835b602083106130975780518252601f199092019160209182019101613078565b5181516020939093036101000a6000190180199091169216919091179052604051920182900390912095945050505050565b6000816040516020018082805190602001908083835b602083106130fe5780518252601f1990920191602091820191016130df565b6001836020036101000a0380198251168184511680821785525050505050509050019150506040516020818303038152906040526040518082805190602001908083835b602083106131615780518252601f199092019160209182019101613142565b51815160209384036101000a60001901801990921691161790526040519190930181900381208851909550889450908301928392508401908083835b602083106131bc5780518252601f19909201916020918201910161319d565b6001836020036101000a0380198251168184511680821785525050505050509050019150506040516020818303038152906040526040518082805190602001908083835b6020831061321f5780518252601f199092019160209182019101613200565b5181516020939093036101000a60001901801990911692169190911790526040519201829003909120939093149695505050505050565b6000613260613538565b8215156132b7576040805160e560020a62461bcd02815260206004820152601160248201527f7265717565737420686173682069732030000000000000000000000000000000604482015290519081900360640190fd5b600083815260066020526040902054600880549193509083908110612d6157fe5b606060008260038111156132e857fe5b1415613328575060408051808201909152600781527f70656e64696e67000000000000000000000000000000000000000000000000006020820152612f2a565b600182600381111561333657fe5b1415613376575060408051808201909152600881527f63616e63656c65640000000000000000000000000000000000000000000000006020820152612f2a565b600282600381111561338457fe5b14156133c4575060408051808201909152600881527f617070726f7665640000000000000000000000000000000000000000000000006020820152612f2a565b60038260038111156133d257fe5b1415613412575060408051808201909152600881527f72656a65637465640000000000000000000000000000000000000000000000006020820152612f2a565b5060408051808201909152600781527f756e6b6e6f776e000000000000000000000000000000000000000000000000006020820152612f2a565b60008260c00151600381111561345e57fe5b146134b3576040805160e560020a62461bcd02815260206004820152601660248201527f72657175657374206973206e6f742070656e64696e6700000000000000000000604482015290519081900360640190fd5b6134bc82612f33565b811461089a576040805160e560020a62461bcd02815260206004820152603360248201527f676976656e2072657175657374206861736820646f6573206e6f74206d61746360448201527f6820612070656e64696e67207265717565737400000000000000000000000000606482015290519081900360840190fd5b60e0604051908101604052806000600160a060020a0316815260200160008152602001606081526020016060815260200160008152602001600081526020016000600381111561358457fe5b905290565b828054600181600116156101000203166002900490600052602060002090601f016020900481019282601f106135ca5782800160ff198235161785556135f7565b828001600101855582156135f7579182015b828111156135f75782358255916020019190600101906135dc565b50613603929150613675565b5090565b828054600181600116156101000203166002900490600052602060002090601f016020900481019282601f1061364857805160ff19168380011785556135f7565b828001600101855582156135f7579182015b828111156135f757825182559160200191906001019061365a565b610bfb91905b80821115613603576000815560010161367b560073656e646572206e6f742061206d65726368616e742e0000000000000000000073656e646572206e6f74206120637573746f6469616e2e000000000000000000a165627a7a723058203b328a526a2792eaf6085005ff182d1439c90d717a6c948951a80432dec608620029",
  "source": "pragma solidity 0.4.24;\n\nimport \"../utils/OwnableContract.sol\";\nimport \"../controller/ControllerInterface.sol\";\n\n\ncontract Factory is OwnableContract {\n\n    enum RequestStatus {PENDING, CANCELED, APPROVED, REJECTED}\n\n    struct Request {\n        address requester; // sender of the request.\n        uint amount; // amount of token to mint/burn.\n        string depositAddress; // custodian's asset address in mint, merchant's asset address in burn.\n        string txid; // asset txid for sending/redeeming asset in the mint/burn process.\n        uint nonce; // serial number allocated for each request.\n        uint timestamp; // time of the request creation.\n        RequestStatus status; // status of the request.\n    }\n\n    ControllerInterface public controller;\n\n    // mapping between merchant to the corresponding custodian deposit address, used in the minting process.\n    // by using a different deposit address per merchant the custodian can identify which merchant deposited.\n    mapping(address=>string) public custodianDepositAddress;\n\n    // mapping between merchant to the its deposit address where the asset should be moved to, used in the burning process.\n    mapping(address=>string) public merchantDepositAddress;\n\n    // mapping between a mint request hash and the corresponding request nonce. \n    mapping(bytes32=>uint) public mintRequestNonce;\n\n    // mapping between a burn request hash and the corresponding request nonce.\n    mapping(bytes32=>uint) public burnRequestNonce;\n\n    Request[] public mintRequests;\n    Request[] public burnRequests;\n\n    constructor(ControllerInterface _controller) public {\n        require(_controller != address(0), \"invalid _controller address\");\n        controller = _controller;\n        owner = _controller;\n    }\n\n    modifier onlyMerchant() {\n        require(controller.isMerchant(msg.sender), \"sender not a merchant.\");\n        _;\n    }\n\n    modifier onlyCustodian() {\n        require(controller.isCustodian(msg.sender), \"sender not a custodian.\");\n        _;\n    }\n\n    event CustodianDepositAddressSet(address indexed merchant, address indexed sender, string depositAddress);\n\n    function setCustodianDepositAddress(\n        address merchant,\n        string depositAddress\n    )\n        external\n        onlyCustodian\n        returns (bool) \n    {\n        require(merchant != 0, \"invalid merchant address\");\n        require(controller.isMerchant(merchant), \"merchant address is not a real merchant.\");\n        require(!isEmptyString(depositAddress), \"invalid asset deposit address\");\n\n        custodianDepositAddress[merchant] = depositAddress;\n        emit CustodianDepositAddressSet(merchant, msg.sender, depositAddress);\n        return true;\n    }\n\n    event MerchantDepositAddressSet(address indexed merchant, string depositAddress);\n\n    function setMerchantDepositAddress(string depositAddress) external onlyMerchant returns (bool) {\n        require(!isEmptyString(depositAddress), \"invalid asset deposit address\");\n\n        merchantDepositAddress[msg.sender] = depositAddress;\n        emit MerchantDepositAddressSet(msg.sender, depositAddress);\n        return true; \n    }\n\n    event MintRequestAdd(\n        uint indexed nonce,\n        address indexed requester,\n        uint amount,\n        string depositAddress,\n        string txid,\n        uint timestamp,\n        bytes32 requestHash\n    );\n\n    function addMintRequest(\n        uint amount,\n        string txid,\n        string depositAddress\n    )\n        external\n        onlyMerchant\n        returns (bool)\n    {\n        require(!isEmptyString(depositAddress), \"invalid asset deposit address\"); \n        require(compareStrings(depositAddress, custodianDepositAddress[msg.sender]), \"wrong asset deposit address\");\n\n        uint nonce = mintRequests.length;\n        uint timestamp = getTimestamp();\n\n        Request memory request = Request({\n            requester: msg.sender,\n            amount: amount,\n            depositAddress: depositAddress,\n            txid: txid,\n            nonce: nonce,\n            timestamp: timestamp,\n            status: RequestStatus.PENDING\n        });\n\n        bytes32 requestHash = calcRequestHash(request);\n        mintRequestNonce[requestHash] = nonce; \n        mintRequests.push(request);\n\n        emit MintRequestAdd(nonce, msg.sender, amount, depositAddress, txid, timestamp, requestHash);\n        return true;\n    }\n\n    event MintRequestCancel(uint indexed nonce, address indexed requester, bytes32 requestHash);\n\n    function cancelMintRequest(bytes32 requestHash) external onlyMerchant returns (bool) {\n        uint nonce;\n        Request memory request;\n\n        (nonce, request) = getPendingMintRequest(requestHash);\n\n        require(msg.sender == request.requester, \"cancel sender is different than pending request initiator\");\n        mintRequests[nonce].status = RequestStatus.CANCELED;\n\n        emit MintRequestCancel(nonce, msg.sender, requestHash);\n        return true;\n    }\n\n    event MintConfirmed(\n        uint indexed nonce,\n        address indexed requester,\n        uint amount,\n        string depositAddress,\n        string txid,\n        uint timestamp,\n        bytes32 requestHash\n    );\n\n    function confirmMintRequest(bytes32 requestHash) external onlyCustodian returns (bool) {\n        uint nonce;\n        Request memory request;\n\n        (nonce, request) = getPendingMintRequest(requestHash);\n\n        mintRequests[nonce].status = RequestStatus.APPROVED;\n        require(controller.mint(request.requester, request.amount), \"mint failed\");\n\n        emit MintConfirmed(\n            request.nonce,\n            request.requester,\n            request.amount,\n            request.depositAddress,\n            request.txid,\n            request.timestamp,\n            requestHash\n        );\n        return true;\n    }\n\n    event MintRejected(\n        uint indexed nonce,\n        address indexed requester,\n        uint amount,\n        string depositAddress,\n        string txid,\n        uint timestamp,\n        bytes32 requestHash\n    );\n\n    function rejectMintRequest(bytes32 requestHash) external onlyCustodian returns (bool) {\n        uint nonce;\n        Request memory request;\n\n        (nonce, request) = getPendingMintRequest(requestHash);\n\n        mintRequests[nonce].status = RequestStatus.REJECTED;\n\n        emit MintRejected(\n            request.nonce,\n            request.requester,\n            request.amount,\n            request.depositAddress,\n            request.txid,\n            request.timestamp,\n            requestHash\n        );\n        return true;\n    }\n\n    event Burned(\n        uint indexed nonce,\n        address indexed requester,\n        uint amount,\n        string depositAddress,\n        uint timestamp,\n        bytes32 requestHash\n    );\n\n    function burn(uint amount) external onlyMerchant returns (bool) {\n        string memory depositAddress = merchantDepositAddress[msg.sender];\n        require(!isEmptyString(depositAddress), \"merchant asset deposit address was not set\"); \n\n        uint nonce = burnRequests.length;\n        uint timestamp = getTimestamp();\n\n        // set txid as empty since it is not known yet.\n        string memory txid = \"\";\n\n        Request memory request = Request({\n            requester: msg.sender,\n            amount: amount,\n            depositAddress: depositAddress,\n            txid: txid,\n            nonce: nonce,\n            timestamp: timestamp,\n            status: RequestStatus.PENDING\n        });\n\n        bytes32 requestHash = calcRequestHash(request);\n        burnRequestNonce[requestHash] = nonce; \n        burnRequests.push(request);\n\n        require(controller.getToken().transferFrom(msg.sender, controller, amount), \"transfer tokens to burn failed\");\n        require(controller.burn(amount), \"burn failed\");\n\n        emit Burned(nonce, msg.sender, amount, depositAddress, timestamp, requestHash);\n        return true;\n    }\n\n    event BurnConfirmed(\n        uint indexed nonce,\n        address indexed requester,\n        uint amount,\n        string depositAddress,\n        string txid,\n        uint timestamp,\n        bytes32 inputRequestHash\n    );\n\n    function confirmBurnRequest(bytes32 requestHash, string txid) external onlyCustodian returns (bool) {\n        uint nonce;\n        Request memory request;\n\n        (nonce, request) = getPendingBurnRequest(requestHash);\n\n        burnRequests[nonce].txid = txid;\n        burnRequests[nonce].status = RequestStatus.APPROVED;\n        burnRequestNonce[calcRequestHash(burnRequests[nonce])] = nonce;\n\n        emit BurnConfirmed(\n            request.nonce,\n            request.requester,\n            request.amount,\n            request.depositAddress,\n            txid,\n            request.timestamp,\n            requestHash\n        );\n        return true;\n    }\n\n    function getMintRequest(uint nonce)\n        external\n        view\n        returns (\n            uint requestNonce,\n            address requester,\n            uint amount,\n            string depositAddress,\n            string txid,\n            uint timestamp,\n            string status,\n            bytes32 requestHash\n        )\n    {\n        Request memory request = mintRequests[nonce];\n        string memory statusString = getStatusString(request.status); \n\n        requestNonce = request.nonce;\n        requester = request.requester;\n        amount = request.amount;\n        depositAddress = request.depositAddress;\n        txid = request.txid;\n        timestamp = request.timestamp;\n        status = statusString;\n        requestHash = calcRequestHash(request);\n    }\n\n    function getMintRequestsLength() external view returns (uint length) {\n        return mintRequests.length;\n    }\n\n    function getBurnRequest(uint nonce)\n        external\n        view\n        returns (\n            uint requestNonce,\n            address requester,\n            uint amount,\n            string depositAddress,\n            string txid,\n            uint timestamp,\n            string status,\n            bytes32 requestHash\n        )\n    {\n        Request storage request = burnRequests[nonce];\n        string memory statusString = getStatusString(request.status); \n\n        requestNonce = request.nonce;\n        requester = request.requester;\n        amount = request.amount;\n        depositAddress = request.depositAddress;\n        txid = request.txid;\n        timestamp = request.timestamp;\n        status = statusString;\n        requestHash = calcRequestHash(request);\n    }\n\n    function getBurnRequestsLength() external view returns (uint length) {\n        return burnRequests.length;\n    }\n\n    function getTimestamp() internal view returns (uint) {\n        // timestamp is only used for data maintaining purpose, it is not relied on for critical logic.\n        return block.timestamp; // solhint-disable-line not-rely-on-time\n    }\n\n    function getPendingMintRequest(bytes32 requestHash) internal view returns (uint nonce, Request memory request) {\n        require(requestHash != 0, \"request hash is 0\");\n        nonce = mintRequestNonce[requestHash];\n        request = mintRequests[nonce];\n        validatePendingRequest(request, requestHash);\n    }\n\n    function getPendingBurnRequest(bytes32 requestHash) internal view returns (uint nonce, Request memory request) {\n        require(requestHash != 0, \"request hash is 0\");\n        nonce = burnRequestNonce[requestHash];\n        request = burnRequests[nonce];\n        validatePendingRequest(request, requestHash);\n    }\n\n    function validatePendingRequest(Request memory request, bytes32 requestHash) internal pure {\n        require(request.status == RequestStatus.PENDING, \"request is not pending\");\n        require(requestHash == calcRequestHash(request), \"given request hash does not match a pending request\");\n    }\n\n    function calcRequestHash(Request request) internal pure returns (bytes32) {\n        return keccak256(abi.encode(\n            request.requester,\n            request.amount,\n            request.depositAddress,\n            request.txid,\n            request.nonce,\n            request.timestamp\n        ));\n    }\n\n    function compareStrings (string a, string b) internal pure returns (bool) {\n        return (keccak256(abi.encodePacked(a)) == keccak256(abi.encodePacked(b)));\n    }\n\n    function isEmptyString (string a) internal pure returns (bool) {\n        return (compareStrings(a, \"\"));\n    }\n\n    function getStatusString(RequestStatus status) internal pure returns (string) {\n        if (status == RequestStatus.PENDING) {\n            return \"pending\";\n        } else if (status == RequestStatus.CANCELED) {\n            return \"canceled\";\n        } else if (status == RequestStatus.APPROVED) {\n            return \"approved\";\n        } else if (status == RequestStatus.REJECTED) {\n            return \"rejected\";\n        } else {\n            // this fallback can never be reached.\n            return \"unknown\";\n        }\n    }\n}\n",
  "sourcePath": "contracts/factory/Factory.sol",
  "compiler": {
    "name": "solc",
    "version": "0.4.24+commit.e67f0147.Emscripten.clang"
  },
  "schemaVersion": "2.0.1",
  "updatedAt": "2021-08-14T17:04:47.482Z"
}