{
  "contractName": "IndexedMappingWrapper",
  "abi": [
    {
      "constant": false,
      "inputs": [
        {
          "name": "val",
          "type": "address"
        }
      ],
      "name": "add",
      "outputs": [
        {
          "name": "",
          "type": "bool"
        }
      ],
      "payable": false,
      "stateMutability": "nonpayable",
      "type": "function"
    },
    {
      "constant": false,
      "inputs": [
        {
          "name": "val",
          "type": "address"
        }
      ],
      "name": "remove",
      "outputs": [
        {
          "name": "",
          "type": "bool"
        }
      ],
      "payable": false,
      "stateMutability": "nonpayable",
      "type": "function"
    },
    {
      "constant": true,
      "inputs": [
        {
          "name": "val",
          "type": "address"
        }
      ],
      "name": "exists",
      "outputs": [
        {
          "name": "",
          "type": "bool"
        }
      ],
      "payable": false,
      "stateMutability": "view",
      "type": "function"
    },
    {
      "constant": true,
      "inputs": [
        {
          "name": "index",
          "type": "uint256"
        }
      ],
      "name": "getValue",
      "outputs": [
        {
          "name": "",
          "type": "address"
        }
      ],
      "payable": false,
      "stateMutability": "view",
      "type": "function"
    },
    {
      "constant": true,
      "inputs": [],
      "name": "getValueList",
      "outputs": [
        {
          "name": "",
          "type": "address[]"
        }
      ],
      "payable": false,
      "stateMutability": "view",
      "type": "function"
    }
  ],
  "bytecode": "0x608060405234801561001057600080fd5b5061049b806100206000396000f30060806040526004361061006c5763ffffffff7c01000000000000000000000000000000000000000000000000000000006000350416630a3b0a4f81146100715780630ff4c916146100a657806329092d0e146100da578063c66789c2146100fb578063f6a3d24e14610160575b600080fd5b34801561007d57600080fd5b50610092600160a060020a0360043516610181565b604080519115158252519081900360200190f35b3480156100b257600080fd5b506100be600435610199565b60408051600160a060020a039092168252519081900360200190f35b3480156100e657600080fd5b50610092600160a060020a03600435166101ab565b34801561010757600080fd5b506101106101bd565b60408051602080825283518183015283519192839290830191858101910280838360005b8381101561014c578181015183820152602001610134565b505050509050019250505060405180910390f35b34801561016c57600080fd5b50610092600160a060020a03600435166101cf565b6000610193818363ffffffff6101e116565b92915050565b6000610193818363ffffffff61026016565b6000610193818363ffffffff61028f16565b60606101c960006103a3565b90505b90565b6000610193818363ffffffff61040916565b60006101ed8383610409565b156101fa57506000610193565b50600160a060020a0316600081815260208381526040808320805460ff1916600190811790915560028601805480830182559085528385208101805473ffffffffffffffffffffffffffffffffffffffff19168717905594845294850190915290205590565b6000826002018281548110151561027357fe5b600091825260209091200154600160a060020a03169392505050565b600080600061029e8585610409565b15156102ad576000925061039b565b600160a060020a03841660009081526001860160205260409020546002860180549193509060001981019081106102e057fe5b600091825260209091200154600286018054600160a060020a03909216925082918490811061030b57fe5b6000918252602080832091909101805473ffffffffffffffffffffffffffffffffffffffff1916600160a060020a039485161790559183168152600187019091526040902082905560028501805490610368906000198301610428565b50600160a060020a038416600090815260208681526040808320805460ff19169055600180890190925282209190915592505b505092915050565b6060816002018054806020026020016040519081016040528092919081815260200182805480156103fd57602002820191906000526020600020905b8154600160a060020a031681526001909101906020018083116103df575b50505050509050919050565b600160a060020a03166000908152602091909152604090205460ff1690565b81548183558181111561044c5760008381526020902061044c918101908301610451565b505050565b6101cc91905b8082111561046b5760008155600101610457565b50905600a165627a7a72305820b46040abb17ff7a2736150b4fb129283963f3ea8aadbeefe9f2631e55b85c7d10029",
  "source": "pragma solidity 0.4.24;\n\nimport \"../utils/IndexedMapping.sol\";\n\n\ncontract IndexedMappingWrapper {\n\n    using IndexedMapping for IndexedMapping.Data;\n    IndexedMapping.Data internal data;\n\n    function add(address val) external returns (bool) {\n        return data.add(val);\n    }\n\n    function remove(address val) external returns (bool) {\n        return data.remove(val);\n    }\n \n    function exists(address val) external view returns (bool) {\n        return data.exists(val);\n    }\n\n    function getValue(uint index) external view returns (address) {\n        return data.getValue(index);\n    }\n\n    function getValueList() external view returns (address[]) {\n        return data.getValueList();\n    }\n}\n",
  "sourcePath": "contracts/mock/IndexedMappingWrapper.sol",
  "compiler": {
    "name": "solc",
    "version": "0.4.24+commit.e67f0147.Emscripten.clang"
  },
  "schemaVersion": "2.0.1",
  "updatedAt": "2021-08-14T17:04:47.487Z"
}