{
  "contractName": "OwnableContractOwner",
  "abi": [
    {
      "constant": false,
      "inputs": [
        {
          "name": "_token",
          "type": "address"
        }
      ],
      "name": "reclaimToken",
      "outputs": [],
      "payable": false,
      "stateMutability": "nonpayable",
      "type": "function"
    },
    {
      "constant": false,
      "inputs": [],
      "name": "claimOwnership",
      "outputs": [],
      "payable": false,
      "stateMutability": "nonpayable",
      "type": "function"
    },
    {
      "constant": false,
      "inputs": [],
      "name": "renounceOwnership",
      "outputs": [],
      "payable": false,
      "stateMutability": "nonpayable",
      "type": "function"
    },
    {
      "constant": true,
      "inputs": [],
      "name": "owner",
      "outputs": [
        {
          "name": "",
          "type": "address"
        }
      ],
      "payable": false,
      "stateMutability": "view",
      "type": "function"
    },
    {
      "constant": true,
      "inputs": [],
      "name": "pendingOwner",
      "outputs": [
        {
          "name": "",
          "type": "address"
        }
      ],
      "payable": false,
      "stateMutability": "view",
      "type": "function"
    },
    {
      "constant": false,
      "inputs": [
        {
          "name": "newOwner",
          "type": "address"
        }
      ],
      "name": "transferOwnership",
      "outputs": [],
      "payable": false,
      "stateMutability": "nonpayable",
      "type": "function"
    },
    {
      "anonymous": false,
      "inputs": [
        {
          "indexed": false,
          "name": "ownedContract",
          "type": "address"
        },
        {
          "indexed": false,
          "name": "newOwner",
          "type": "address"
        }
      ],
      "name": "CalledTransferOwnership",
      "type": "event"
    },
    {
      "anonymous": false,
      "inputs": [
        {
          "indexed": false,
          "name": "contractToOwn",
          "type": "address"
        }
      ],
      "name": "CalledClaimOwnership",
      "type": "event"
    },
    {
      "anonymous": false,
      "inputs": [
        {
          "indexed": false,
          "name": "ownedContract",
          "type": "address"
        },
        {
          "indexed": false,
          "name": "_token",
          "type": "address"
        }
      ],
      "name": "CalledReclaimToken",
      "type": "event"
    },
    {
      "anonymous": false,
      "inputs": [
        {
          "indexed": true,
          "name": "previousOwner",
          "type": "address"
        }
      ],
      "name": "OwnershipRenounced",
      "type": "event"
    },
    {
      "anonymous": false,
      "inputs": [
        {
          "indexed": true,
          "name": "previousOwner",
          "type": "address"
        },
        {
          "indexed": true,
          "name": "newOwner",
          "type": "address"
        }
      ],
      "name": "OwnershipTransferred",
      "type": "event"
    },
    {
      "constant": false,
      "inputs": [
        {
          "name": "ownedContract",
          "type": "address"
        },
        {
          "name": "newOwner",
          "type": "address"
        }
      ],
      "name": "callTransferOwnership",
      "outputs": [
        {
          "name": "",
          "type": "bool"
        }
      ],
      "payable": false,
      "stateMutability": "nonpayable",
      "type": "function"
    },
    {
      "constant": false,
      "inputs": [
        {
          "name": "contractToOwn",
          "type": "address"
        }
      ],
      "name": "callClaimOwnership",
      "outputs": [
        {
          "name": "",
          "type": "bool"
        }
      ],
      "payable": false,
      "stateMutability": "nonpayable",
      "type": "function"
    },
    {
      "constant": false,
      "inputs": [
        {
          "name": "ownedContract",
          "type": "address"
        },
        {
          "name": "_token",
          "type": "address"
        }
      ],
      "name": "callReclaimToken",
      "outputs": [
        {
          "name": "",
          "type": "bool"
        }
      ],
      "payable": false,
      "stateMutability": "nonpayable",
      "type": "function"
    }
  ],
  "bytecode": "0x608060405260008054600160a060020a031916331790556107fd806100256000396000f30060806040526004361061007f5763ffffffff60e060020a60003504166317ffc3208114610084578063332ee192146100a75780634ca66540146100dc5780634e71e0c814610103578063715018a6146101185780638da5cb5b1461012d578063e30c39781461015e578063f2080dd014610173578063f2fde38b1461019a575b600080fd5b34801561009057600080fd5b506100a5600160a060020a03600435166101bb565b005b3480156100b357600080fd5b506100c8600160a060020a0360043516610287565b604080519115158252519081900360200190f35b3480156100e857600080fd5b506100c8600160a060020a036004358116906024351661033a565b34801561010f57600080fd5b506100a561048a565b34801561012457600080fd5b506100a5610512565b34801561013957600080fd5b5061014261057e565b60408051600160a060020a039092168252519081900360200190f35b34801561016a57600080fd5b5061014261058d565b34801561017f57600080fd5b506100c8600160a060020a036004358116906024351661059c565b3480156101a657600080fd5b506100a5600160a060020a03600435166106ec565b60008054600160a060020a031633146101d357600080fd5b604080517f70a082310000000000000000000000000000000000000000000000000000000081523060048201529051600160a060020a038416916370a082319160248083019260209291908290030181600087803b15801561023457600080fd5b505af1158015610248573d6000803e3d6000fd5b505050506040513d602081101561025e57600080fd5b505160005490915061028390600160a060020a0384811691168363ffffffff61073216565b5050565b60008054600160a060020a0316331461029f57600080fd5b81600160a060020a0316634e71e0c86040518163ffffffff1660e060020a028152600401600060405180830381600087803b1580156102dd57600080fd5b505af11580156102f1573d6000803e3d6000fd5b505060408051600160a060020a038616815290517ff3ad522750d368e1255a208fc9116f9ed12f39188f69b89c50c8dc43df78049b9350908190036020019150a1506001919050565b60008054600160a060020a0316331461035257600080fd5b600160a060020a03821615156103c957604080517f08c379a000000000000000000000000000000000000000000000000000000000815260206004820152601660248201527f696e76616c6964205f746f6b656e206164647265737300000000000000000000604482015290519081900360640190fd5b82600160a060020a03166317ffc320836040518263ffffffff1660e060020a0281526004018082600160a060020a0316600160a060020a03168152602001915050600060405180830381600087803b15801561042457600080fd5b505af1158015610438573d6000803e3d6000fd5b505060408051600160a060020a0380881682528616602082015281517f56195bb7b8fa8c05ef27289a07013ef2d3f4608c4308e875c6c2e19eb033a9589450908190039091019150a150600192915050565b600154600160a060020a031633146104a157600080fd5b60015460008054604051600160a060020a0393841693909116917f8be0079c531659141344cd1fd0a4f28419497f9722a3daafe3b4186f6b6457e091a3600180546000805473ffffffffffffffffffffffffffffffffffffffff19908116600160a060020a03841617909155169055565b600054600160a060020a0316331461052957600080fd5b60008054604051600160a060020a03909116917ff8df31144d9c2f0f6b59d69b8b98abd5459d07f2742c4df920b25aae33c6482091a26000805473ffffffffffffffffffffffffffffffffffffffff19169055565b600054600160a060020a031681565b600154600160a060020a031681565b60008054600160a060020a031633146105b457600080fd5b600160a060020a038216151561062b57604080517f08c379a000000000000000000000000000000000000000000000000000000000815260206004820152601860248201527f696e76616c6964206e65774f776e657220616464726573730000000000000000604482015290519081900360640190fd5b82600160a060020a031663f2fde38b836040518263ffffffff1660e060020a0281526004018082600160a060020a0316600160a060020a03168152602001915050600060405180830381600087803b15801561068657600080fd5b505af115801561069a573d6000803e3d6000fd5b505060408051600160a060020a0380881682528616602082015281517f18838a3b49e4b76edd553a08a7ae770b10cad20889e3d45de720694464f15ca09450908190039091019150a150600192915050565b600054600160a060020a0316331461070357600080fd5b6001805473ffffffffffffffffffffffffffffffffffffffff1916600160a060020a0392909216919091179055565b82600160a060020a031663a9059cbb83836040518363ffffffff1660e060020a0281526004018083600160a060020a0316600160a060020a0316815260200182815260200192505050602060405180830381600087803b15801561079557600080fd5b505af11580156107a9573d6000803e3d6000fd5b505050506040513d60208110156107bf57600080fd5b505115156107cc57600080fd5b5050505600a165627a7a723058204aab94035b7feaeac9b5e0ef7319b1c7c857bcd844cdf0477c34b56e7a978fc00029",
  "source": "pragma solidity 0.4.24;\n\nimport \"../utils/OwnableContract.sol\";\n\n\ncontract OwnableContractOwner is OwnableContract {\n\n    event CalledTransferOwnership(OwnableContract ownedContract, address newOwner);\n\n    function callTransferOwnership(OwnableContract ownedContract, address newOwner) external onlyOwner returns (bool) {\n        require(newOwner != address(0), \"invalid newOwner address\");\n        ownedContract.transferOwnership(newOwner);\n        emit CalledTransferOwnership(ownedContract, newOwner);\n        return true;\n    }\n\n    event CalledClaimOwnership(OwnableContract contractToOwn);\n\n    function callClaimOwnership(OwnableContract contractToOwn) external onlyOwner returns (bool) {\n        contractToOwn.claimOwnership();\n        emit CalledClaimOwnership(contractToOwn);\n        return true;\n    }\n\n    event CalledReclaimToken(OwnableContract ownedContract, ERC20 _token);\n\n    function callReclaimToken(OwnableContract ownedContract, ERC20 _token) external onlyOwner returns (bool) {\n        require(_token != address(0), \"invalid _token address\");\n        ownedContract.reclaimToken(_token);\n        emit CalledReclaimToken(ownedContract, _token);\n        return true;\n    }\n}\n",
  "sourcePath": "contracts/utils/OwnableContractOwner.sol",
  "compiler": {
    "name": "solc",
    "version": "0.4.24+commit.e67f0147.Emscripten.clang"
  },
  "schemaVersion": "2.0.1",
  "updatedAt": "2021-08-14T17:04:47.480Z"
}