{
  "contractName": "WrappedToken",
  "abi": [
    {
      "constant": true,
      "inputs": [],
      "name": "mintingFinished",
      "outputs": [
        {
          "name": "",
          "type": "bool"
        }
      ],
      "payable": false,
      "stateMutability": "view",
      "type": "function"
    },
    {
      "constant": false,
      "inputs": [
        {
          "name": "_spender",
          "type": "address"
        },
        {
          "name": "_value",
          "type": "uint256"
        }
      ],
      "name": "approve",
      "outputs": [
        {
          "name": "",
          "type": "bool"
        }
      ],
      "payable": false,
      "stateMutability": "nonpayable",
      "type": "function"
    },
    {
      "constant": false,
      "inputs": [
        {
          "name": "_token",
          "type": "address"
        }
      ],
      "name": "reclaimToken",
      "outputs": [],
      "payable": false,
      "stateMutability": "nonpayable",
      "type": "function"
    },
    {
      "constant": true,
      "inputs": [],
      "name": "totalSupply",
      "outputs": [
        {
          "name": "",
          "type": "uint256"
        }
      ],
      "payable": false,
      "stateMutability": "view",
      "type": "function"
    },
    {
      "constant": false,
      "inputs": [
        {
          "name": "_from",
          "type": "address"
        },
        {
          "name": "_to",
          "type": "address"
        },
        {
          "name": "_value",
          "type": "uint256"
        }
      ],
      "name": "transferFrom",
      "outputs": [
        {
          "name": "",
          "type": "bool"
        }
      ],
      "payable": false,
      "stateMutability": "nonpayable",
      "type": "function"
    },
    {
      "constant": false,
      "inputs": [],
      "name": "unpause",
      "outputs": [],
      "payable": false,
      "stateMutability": "nonpayable",
      "type": "function"
    },
    {
      "constant": false,
      "inputs": [
        {
          "name": "_to",
          "type": "address"
        },
        {
          "name": "_amount",
          "type": "uint256"
        }
      ],
      "name": "mint",
      "outputs": [
        {
          "name": "",
          "type": "bool"
        }
      ],
      "payable": false,
      "stateMutability": "nonpayable",
      "type": "function"
    },
    {
      "constant": false,
      "inputs": [],
      "name": "claimOwnership",
      "outputs": [],
      "payable": false,
      "stateMutability": "nonpayable",
      "type": "function"
    },
    {
      "constant": true,
      "inputs": [],
      "name": "paused",
      "outputs": [
        {
          "name": "",
          "type": "bool"
        }
      ],
      "payable": false,
      "stateMutability": "view",
      "type": "function"
    },
    {
      "constant": false,
      "inputs": [
        {
          "name": "_spender",
          "type": "address"
        },
        {
          "name": "_subtractedValue",
          "type": "uint256"
        }
      ],
      "name": "decreaseApproval",
      "outputs": [
        {
          "name": "success",
          "type": "bool"
        }
      ],
      "payable": false,
      "stateMutability": "nonpayable",
      "type": "function"
    },
    {
      "constant": true,
      "inputs": [
        {
          "name": "_owner",
          "type": "address"
        }
      ],
      "name": "balanceOf",
      "outputs": [
        {
          "name": "",
          "type": "uint256"
        }
      ],
      "payable": false,
      "stateMutability": "view",
      "type": "function"
    },
    {
      "constant": false,
      "inputs": [],
      "name": "pause",
      "outputs": [],
      "payable": false,
      "stateMutability": "nonpayable",
      "type": "function"
    },
    {
      "constant": true,
      "inputs": [],
      "name": "owner",
      "outputs": [
        {
          "name": "",
          "type": "address"
        }
      ],
      "payable": false,
      "stateMutability": "view",
      "type": "function"
    },
    {
      "constant": false,
      "inputs": [
        {
          "name": "_to",
          "type": "address"
        },
        {
          "name": "_value",
          "type": "uint256"
        }
      ],
      "name": "transfer",
      "outputs": [
        {
          "name": "",
          "type": "bool"
        }
      ],
      "payable": false,
      "stateMutability": "nonpayable",
      "type": "function"
    },
    {
      "constant": false,
      "inputs": [
        {
          "name": "_spender",
          "type": "address"
        },
        {
          "name": "_addedValue",
          "type": "uint256"
        }
      ],
      "name": "increaseApproval",
      "outputs": [
        {
          "name": "success",
          "type": "bool"
        }
      ],
      "payable": false,
      "stateMutability": "nonpayable",
      "type": "function"
    },
    {
      "constant": true,
      "inputs": [
        {
          "name": "_owner",
          "type": "address"
        },
        {
          "name": "_spender",
          "type": "address"
        }
      ],
      "name": "allowance",
      "outputs": [
        {
          "name": "",
          "type": "uint256"
        }
      ],
      "payable": false,
      "stateMutability": "view",
      "type": "function"
    },
    {
      "constant": true,
      "inputs": [],
      "name": "pendingOwner",
      "outputs": [
        {
          "name": "",
          "type": "address"
        }
      ],
      "payable": false,
      "stateMutability": "view",
      "type": "function"
    },
    {
      "constant": false,
      "inputs": [
        {
          "name": "newOwner",
          "type": "address"
        }
      ],
      "name": "transferOwnership",
      "outputs": [],
      "payable": false,
      "stateMutability": "nonpayable",
      "type": "function"
    },
    {
      "anonymous": false,
      "inputs": [],
      "name": "Pause",
      "type": "event"
    },
    {
      "anonymous": false,
      "inputs": [],
      "name": "Unpause",
      "type": "event"
    },
    {
      "anonymous": false,
      "inputs": [
        {
          "indexed": true,
          "name": "burner",
          "type": "address"
        },
        {
          "indexed": false,
          "name": "value",
          "type": "uint256"
        }
      ],
      "name": "Burn",
      "type": "event"
    },
    {
      "anonymous": false,
      "inputs": [
        {
          "indexed": true,
          "name": "to",
          "type": "address"
        },
        {
          "indexed": false,
          "name": "amount",
          "type": "uint256"
        }
      ],
      "name": "Mint",
      "type": "event"
    },
    {
      "anonymous": false,
      "inputs": [],
      "name": "MintFinished",
      "type": "event"
    },
    {
      "anonymous": false,
      "inputs": [
        {
          "indexed": true,
          "name": "previousOwner",
          "type": "address"
        }
      ],
      "name": "OwnershipRenounced",
      "type": "event"
    },
    {
      "anonymous": false,
      "inputs": [
        {
          "indexed": true,
          "name": "previousOwner",
          "type": "address"
        },
        {
          "indexed": true,
          "name": "newOwner",
          "type": "address"
        }
      ],
      "name": "OwnershipTransferred",
      "type": "event"
    },
    {
      "anonymous": false,
      "inputs": [
        {
          "indexed": true,
          "name": "owner",
          "type": "address"
        },
        {
          "indexed": true,
          "name": "spender",
          "type": "address"
        },
        {
          "indexed": false,
          "name": "value",
          "type": "uint256"
        }
      ],
      "name": "Approval",
      "type": "event"
    },
    {
      "anonymous": false,
      "inputs": [
        {
          "indexed": true,
          "name": "from",
          "type": "address"
        },
        {
          "indexed": true,
          "name": "to",
          "type": "address"
        },
        {
          "indexed": false,
          "name": "value",
          "type": "uint256"
        }
      ],
      "name": "Transfer",
      "type": "event"
    },
    {
      "constant": false,
      "inputs": [
        {
          "name": "value",
          "type": "uint256"
        }
      ],
      "name": "burn",
      "outputs": [],
      "payable": false,
      "stateMutability": "nonpayable",
      "type": "function"
    },
    {
      "constant": false,
      "inputs": [],
      "name": "finishMinting",
      "outputs": [
        {
          "name": "",
          "type": "bool"
        }
      ],
      "payable": false,
      "stateMutability": "nonpayable",
      "type": "function"
    },
    {
      "constant": false,
      "inputs": [],
      "name": "renounceOwnership",
      "outputs": [],
      "payable": false,
      "stateMutability": "nonpayable",
      "type": "function"
    }
  ],
  "bytecode": "0x608060405260038054600160b060020a03191633179055610fb5806100256000396000f30060806040526004361061011c5763ffffffff7c010000000000000000000000000000000000000000000000000000000060003504166305d2035b8114610121578063095ea7b31461014a57806317ffc3201461016e57806318160ddd1461019157806323b872dd146101b85780633f4ba83a146101e257806340c10f19146101f757806342966c681461021b5780634e71e0c8146102335780635c975abb14610248578063661884631461025d57806370a0823114610281578063715018a6146102a25780637d64bcb4146102b75780638456cb59146102cc5780638da5cb5b146102e1578063a9059cbb14610312578063d73dd62314610336578063dd62ed3e1461035a578063e30c397814610381578063f2fde38b14610396575b600080fd5b34801561012d57600080fd5b506101366103b7565b604080519115158252519081900360200190f35b34801561015657600080fd5b50610136600160a060020a03600435166024356103d8565b34801561017a57600080fd5b5061018f600160a060020a0360043516610403565b005b34801561019d57600080fd5b506101a66104d1565b60408051918252519081900360200190f35b3480156101c457600080fd5b50610136600160a060020a03600435811690602435166044356104d7565b3480156101ee57600080fd5b5061018f610504565b34801561020357600080fd5b50610136600160a060020a036004351660243561057d565b34801561022757600080fd5b5061018f600435610686565b34801561023f57600080fd5b5061018f6106a9565b34801561025457600080fd5b50610136610733565b34801561026957600080fd5b50610136600160a060020a0360043516602435610743565b34801561028d57600080fd5b506101a6600160a060020a0360043516610767565b3480156102ae57600080fd5b5061018f610782565b3480156102c357600080fd5b50610136610800565b3480156102d857600080fd5b5061018f610820565b3480156102ed57600080fd5b506102f661089e565b60408051600160a060020a039092168252519081900360200190f35b34801561031e57600080fd5b50610136600160a060020a03600435166024356108ad565b34801561034257600080fd5b50610136600160a060020a03600435166024356108d1565b34801561036657600080fd5b506101a6600160a060020a03600435811690602435166108f5565b34801561038d57600080fd5b506102f6610920565b3480156103a257600080fd5b5061018f600160a060020a036004351661092f565b60035474010000000000000000000000000000000000000000900460ff1681565b60035460009060a860020a900460ff16156103f257600080fd5b6103fc8383610975565b9392505050565b600354600090600160a060020a0316331461041d57600080fd5b604080517f70a082310000000000000000000000000000000000000000000000000000000081523060048201529051600160a060020a038416916370a082319160248083019260209291908290030181600087803b15801561047e57600080fd5b505af1158015610492573d6000803e3d6000fd5b505050506040513d60208110156104a857600080fd5b50516003549091506104cd90600160a060020a0384811691168363ffffffff6109db16565b5050565b60015490565b60035460009060a860020a900460ff16156104f157600080fd5b6104fc848484610a93565b949350505050565b600354600160a060020a0316331461051b57600080fd5b60035460a860020a900460ff16151561053357600080fd5b6003805475ff000000000000000000000000000000000000000000191690556040517f7805862f689e2f13df9f062ff482ad3ad112aca9e0847911ed832e158c525b3390600090a1565b600354600090600160a060020a0316331461059757600080fd5b60035474010000000000000000000000000000000000000000900460ff16156105bf57600080fd5b6001546105d2908363ffffffff610bf616565b600155600160a060020a0383166000908152602081905260409020546105fe908363ffffffff610bf616565b600160a060020a03841660008181526020818152604091829020939093558051858152905191927f0f6798a560793a54c3bcfe86a93cde1e73087d944c0ea20544137d412139688592918290030190a2604080518381529051600160a060020a03851691600091600080516020610f6a8339815191529181900360200190a350600192915050565b600354600160a060020a0316331461069d57600080fd5b6106a681610c09565b50565b600454600160a060020a031633146106c057600080fd5b600454600354604051600160a060020a0392831692909116907f8be0079c531659141344cd1fd0a4f28419497f9722a3daafe3b4186f6b6457e090600090a3600480546003805473ffffffffffffffffffffffffffffffffffffffff19908116600160a060020a03841617909155169055565b60035460a860020a900460ff1681565b60035460009060a860020a900460ff161561075d57600080fd5b6103fc8383610c13565b600160a060020a031660009081526020819052604090205490565b600354600160a060020a0316331461079957600080fd5b604080517f08c379a000000000000000000000000000000000000000000000000000000000815260206004820152601f60248201527f72656e6f756e63696e67206f776e65727368697020697320626c6f636b656400604482015290519081900360640190fd5b600354600090600160a060020a0316331461081a57600080fd5b50600090565b600354600160a060020a0316331461083757600080fd5b60035460a860020a900460ff161561084e57600080fd5b6003805475ff000000000000000000000000000000000000000000191660a860020a1790556040517f6985a02210a168e66602d3235cb6db0e70f92b3ba4d376a33c0f3d9434bff62590600090a1565b600354600160a060020a031681565b60035460009060a860020a900460ff16156108c757600080fd5b6103fc8383610d02565b60035460009060a860020a900460ff16156108eb57600080fd5b6103fc8383610dcf565b600160a060020a03918216600090815260026020908152604080832093909416825291909152205490565b600454600160a060020a031681565b600354600160a060020a0316331461094657600080fd5b6004805473ffffffffffffffffffffffffffffffffffffffff1916600160a060020a0392909216919091179055565b336000818152600260209081526040808320600160a060020a038716808552908352818420869055815186815291519394909390927f8c5be1e5ebec7d5bd14f71427d1e84f3dd0314c0f7b2291e5b200ac8c7c3b925928290030190a350600192915050565b82600160a060020a031663a9059cbb83836040518363ffffffff167c01000000000000000000000000000000000000000000000000000000000281526004018083600160a060020a0316600160a060020a0316815260200182815260200192505050602060405180830381600087803b158015610a5757600080fd5b505af1158015610a6b573d6000803e3d6000fd5b505050506040513d6020811015610a8157600080fd5b50511515610a8e57600080fd5b505050565b600160a060020a038316600090815260208190526040812054821115610ab857600080fd5b600160a060020a0384166000908152600260209081526040808320338452909152902054821115610ae857600080fd5b600160a060020a0383161515610afd57600080fd5b600160a060020a038416600090815260208190526040902054610b26908363ffffffff610e6816565b600160a060020a038086166000908152602081905260408082209390935590851681522054610b5b908363ffffffff610bf616565b600160a060020a03808516600090815260208181526040808320949094559187168152600282528281203382529091522054610b9d908363ffffffff610e6816565b600160a060020a0380861660008181526002602090815260408083203384528252918290209490945580518681529051928716939192600080516020610f6a833981519152929181900390910190a35060019392505050565b81810182811015610c0357fe5b92915050565b6106a63382610e7a565b336000908152600260209081526040808320600160a060020a0386168452909152812054808310610c6757336000908152600260209081526040808320600160a060020a0388168452909152812055610c9c565b610c77818463ffffffff610e6816565b336000908152600260209081526040808320600160a060020a03891684529091529020555b336000818152600260209081526040808320600160a060020a0389168085529083529281902054815190815290519293927f8c5be1e5ebec7d5bd14f71427d1e84f3dd0314c0f7b2291e5b200ac8c7c3b925929181900390910190a35060019392505050565b33600090815260208190526040812054821115610d1e57600080fd5b600160a060020a0383161515610d3357600080fd5b33600090815260208190526040902054610d53908363ffffffff610e6816565b3360009081526020819052604080822092909255600160a060020a03851681522054610d85908363ffffffff610bf616565b600160a060020a03841660008181526020818152604091829020939093558051858152905191923392600080516020610f6a8339815191529281900390910190a350600192915050565b336000908152600260209081526040808320600160a060020a0386168452909152812054610e03908363ffffffff610bf616565b336000818152600260209081526040808320600160a060020a0389168085529083529281902085905580519485525191937f8c5be1e5ebec7d5bd14f71427d1e84f3dd0314c0f7b2291e5b200ac8c7c3b925929081900390910190a350600192915050565b600082821115610e7457fe5b50900390565b600160a060020a038216600090815260208190526040902054811115610e9f57600080fd5b600160a060020a038216600090815260208190526040902054610ec8908263ffffffff610e6816565b600160a060020a038316600090815260208190526040902055600154610ef4908263ffffffff610e6816565b600155604080518281529051600160a060020a038416917fcc16f5dbb4873280815c1ee09dbd06736cffcc184412cf7a71a0fdb75d397ca5919081900360200190a2604080518281529051600091600160a060020a03851691600080516020610f6a8339815191529181900360200190a350505600ddf252ad1be2c89b69c2b068fc378daa952ba7f163c4a11628f55a4df523b3efa165627a7a72305820e31bf9aca146147bcf6de632f1812deb05c35c4d72dee391602a1acd70908f150029",
  "source": "pragma solidity 0.4.24;\n\nimport \"openzeppelin-solidity/contracts/token/ERC20/StandardToken.sol\";\nimport \"openzeppelin-solidity/contracts/token/ERC20/DetailedERC20.sol\";\nimport \"openzeppelin-solidity/contracts/token/ERC20/MintableToken.sol\";\nimport \"openzeppelin-solidity/contracts/token/ERC20/BurnableToken.sol\";\nimport \"openzeppelin-solidity/contracts/token/ERC20/PausableToken.sol\";\nimport \"../utils/OwnableContract.sol\";\n\n\ncontract WrappedToken is StandardToken,\n    MintableToken, BurnableToken, PausableToken, OwnableContract {\n\n    function burn(uint value) public onlyOwner {\n        super.burn(value);\n    }\n\n    function finishMinting() public onlyOwner returns (bool) {\n        return false;\n    }\n\n    function renounceOwnership() public onlyOwner {\n        revert(\"renouncing ownership is blocked\");\n    }\n}\n\n",
  "sourcePath": "contracts/token/WrappedToken.sol",
  "compiler": {
    "name": "solc",
    "version": "0.4.24+commit.e67f0147.Emscripten.clang"
  },
  "schemaVersion": "2.0.1",
  "updatedAt": "2021-08-14T17:04:47.479Z"
}